:02000000ff00ff
:080002004c6174746963650030
:17000a00694345637562653220323032302e31322e32373934330071
:15002100506172743a2069434534305550354b2d53473438002c
:1b003600446174653a2041756720323320323032362031303a30303a3434008e
:0200510000ffae
:040053007eaa997e6a
:02005700510056
:0200590001059f
:03005b00920020f0
:03005e006202b388
:03006100720150d9
:0300640082000017
:02006700110086
:02006900010193
:20006b00000000000000000000000010000000000000400000000000010000000000000420
:20008b000000000000001000000000000040000000001000000000000040000000000001b4
:1600ab0000000000000004000000000000100000000800004000e3
:2000c1000000000000000000000000020000000000000800000000000020000000000000f5
:2000e100800000000000020000000000000800000000020000000000000000000000000073
:170101000000000000000080000000000002000000009000080000cd
:200118000000000000000000000000000000000000000000000000000000000000000000c7
:20013800000000000000000000400000000010000000000000000000000000010000000056
:160158000000000000000000000000000000000000000000000091
:20016e00000000000000000000000000000000000000000000000000000000000000000071
:20018e0000000000000000000000000000040000000001000000000000000000000000004c
:1701ae0010000000000000000000000000000000000000000000002a
:2001c50000000000000000000000000000000000000000000000000000000000000000001a
:2001e5000000000000000000000000000000000000000000000000000000000000000000fa
:1602050000000000000000000000000000000000000000000000e3
:20021b000000000000000000000000000000000000000000000000000000000000000000c3
:20023b000000000000000000000000000000000000000000000000000000000000000100a2
:17025b0000000000000000000000000000000000000000000000008c
:2002720000000000000000000000000000000000000000000000000000000000000000006c
:20029200000000000000000000000001000000000440000000000000000000000000040003
:1602b2000000000000000000000000000000000000000000000036
:2002c800000000000000000000000000000000000000000000000000000000000000000016
:2002e8000000000000000000000000004000000000000000000000000000000000000000b6
:170308000000000000000000000000000000000000000000000000de
:20031f000000000000000000000000000000000000000000000000000000000000000000be
:20033f000000000000401000000000030040000000c01000000000000040000000200801d2
:16035f000000000000000000000000000000000000000000000088
:20037500000000000000000000000000000000000000000000000000000000000000000068
:20039500000000000000000000000000000000000000000000000000000000000001c00087
:1703b500000000000000000000000000000000000000000000000031
:2003cc00000000000000000000000000000000000000000000000000000000000000000011
:2003ec00000010000000000000000000000000000000000000000000000000000000000cd5
:16040c000000000000000000000000000000000000000000c0001a
:200422000000000000000000000000000000000000000000000000000000000000000000ba
:20044200000000000000000000000000000000000000000000080000000000002000000072
:1704620040000000000000000000000000000000000000000c000037
:20047900000000000000000000000000000000000000000000000000000000000000000063
:20049900000000000000000000000000000000000000000000000000000000000000000043
:1604b900000000000000000000000000000000000000000000002d
:2004cf0000000000000000000000000000000000000000000000000000000000000000000d
:2004ef000000010000000000000400000000010000000000000400000000000010000000d3
:17050f000000000000000000000000000000000000000000000000d5
:200526000000000000000000000000000000000000000000000000000000000000000000b5
:2005460000000000004000000000000100000000004000000000000100000000000004000f
:16056600000000000000000000000000000000000000000000007f
:20057c0000000000000000000000000000000000000000000000000000000000000000005f
:20059c000000000000000000000000010000000000400000000800000000000020000000d6
:1705bc00000000000000000000000000000000000000000000000028
:2005d300000000000c302000000000000000000000000000000000000000000000000000ac
:2005f3000000000000000000000000000000000000000000000000000000000000000000e8
:1606130000000000000000000000000000000000000000000000d1
:200629000000000000c30000000000000000000000000000000000000000000000000000ee
:20064900000000000000000000010000000000000000000000000000000000000000000090
:1706690000000000000000000000000000000000000000000000007a
:20068000000000000c302000000000000000000000000000000000000000000000000000fe
:2006a0000000000000000000060000000001800000000000000000000000000000000000b3
:1606c0000000000000000000000000000000000000000000000024
:2006d6000000000000c3000000000000000000000000000000000000000000000000000041
:2006f6000000000000000000000000000000000000000000000000000000000028000000bc
:170716000000000000000000000000000000000000000000000000cc
:20072d00000000000c30200000000000000000000000000000000000000000000000000050
:20074d0000000000000000000000000000000300000383d000000000000000000000000033
:16076d000000000000000000000000000000000000000000000076
:200783000000000000c3000000000000000000000000000000000000000000000000000093
:2007a300000000000000000000000000000000000000003c040000000000000000000000f6
:1707c30000000000000000000000000000000000000000000000001f
:2007da00000000000c302000000000000000000000000000000000000000000000000000a3
:2007fa00000000000000000000001c000000000000000000000000000000000000000000c3
:16081a0000000000000000000000000000000000000000000000c8
:200830000000000000c30000000000000000000000000000000000000000000000000000e5
:20085000000000000000000000000000000000000000000000000000000000000000000088
:17087000000000000000000000000000000000000000000000000071
:20088700000000000c302000000000000000000000000000000000000000000000000000f5
:2008a700000000000000000000000078c010000000000000000000000000000000000000e9
:1608c70000000000000000000001800000000000000e000000008c
:2008dd000000000000c3000000000000000000000000000000000000000000000000000038
:2008fd000000000000000000000000000200000000000000000000000000000000000000d9
:17091d000000000000000000000000000000000000002000000000a3
:20093400000000000c30200000000000000000000000000000000000000000000000000047
:20095400000000000000000000000000000000000000000000000000000000000000000083
:16097400000000000000000000000000000000000000000000006d
:20098a000000000000c300000000000000000000000000000000000000000000000000008a
:2009aa0000000000000000000000000000000000000000000000000000000000000000002d
:1709ca00000000000000000000000000000000000000000000000016
:2009e100000000000c3020000000000000000000000000000000000000000000000000009a
:200a01000000000000000000000000000000000000000000000000000000000000000000d5
:160a2100000000000000000000000000000000000000000c0f00a4
:200a37000000000000c30000000000000000000000000000000000000000000000000000dc
:200a570000000000000000000000000000000000f00000000000000000000000000000008f
:170a7700000000000000000000000000000000000000000000f00078
:200a8e00000000000c302000000000000000000000000000000000000000000000000000ec
:200aae000000000000000000040000000000000000000000000080000000000000000000a4
:160ace000000000000000000000000000000000000000000000012
:200ae4000000000000c300000000000000000000000000000000000000000000000000002f
:200b0400000000000000000000c00000000000000000000000001000000000000000000001
:170b24000000000000000000000000000000000000000000000000ba
:200b3b00000000000c3020000000000000000000000000000000000000000000000000003e
:200b5b0000000000000000000010000000000000000000000000000000000000000000006a
:160b7b000000000000000000000000000000000000000000000064
:200b91000000000000c3000000000000000000000000000000000000000000000000000081
:200bb1000000000000000000000100038000000000000000000000000000000000000000a0
:170bd10000000000000000000000000000000000000000000000000d
:200be800000000000c30200000000000000000000000000000000000000000000000000091
:200c0800000000000000000006100c000000000000000000000000000000000000000000aa
:160c280000000000000000000000000000000000000000000000b6
:200c3e000000000000c30000000000000000000000000000000000000000000000000000d3
:200c5e00000000000000000000016000000000000000000000000000000000000000000015
:170c7e0000000000000000000000000000000000000000000000005f
:200c9500000000000c302000000000000000000000000000000000000000000000000000e3
:200cb50000000000000000000400800000000000000000000000000000000000000000009b
:160cd5000000000000000000000000000000000000000000000009
:200ceb000000000000c3000000000000000000000000000000000000000000000000000026
:200d0b00000000000000000000410000000000000000000000000000000000000000000087
:170d2b000000000000000000000000000000000000000000000000b1
:200d4200000000000c30200000000000000000000000000000000000000000000000000035
:200d6200000000000000000000001c00000000100000000000000000000000000000000045
:160d8200000000000000000000000000000000000000000000005b
:200d98000000000000c3000000000000000000000000000000000000000000000000000078
:200db8000000000000000000000100200000000000000000000000000000000000000000fa
:170dd800000001000000000000000000000000000000000000000003
:200def00000000000c30200000000000000000000000000000000000000000000000000088
:200e0f00000000000000000000014000600000000000000000000000000000000000000022
:160e2f0000000000000000000000000000000000000000000000ad
:200e45000000000000c30000000000000000000000000000000000000000000000000000ca
:200e650000000000000000000000000000020000000000000000000000000000000000006b
:170e8500000000000000000000000000000000000000000000000056
:200e9c00000000000c302000000000000000000000000000000000000000000000000000da
:200ebc00000000000000000000000000000000000000000000000000000000000000000016
:160edc0000000000000000000000000000000001000000000000ff
:200ef2000000000000c300000000000000000000000000000000000000000000000000001d
:200f12000000000000000000000000000000000000000000000000000000000000000000bf
:170f32000000000000000000000000000000000000000000000000a8
:200f4900000000000c3020000000000000000000000000000000000000000000000000002c
:200f6900000000000000000000000000000000000000000000000000000000000000000068
:160f89000000000000000000000000000000000000000000000052
:200f9f000000000000c300000000000000000000000000000000000000000000000000006f
:200fbf00000000000000000000000000000000000000000000000000000000000000000012
:170fdf000000000000000000000000000000000000000000000000fb
:200ff600000000000c3020000000000000000000000000000000000000000000000000007f
:201016000000000000000000040000000000000000000000000000000000000000000000b6
:1610360000000000000000000000000000000000000000000000a4
:20104c000000000000c30000000000000000000000000000000000000000000000000000c1
:20106c00000000000000000000c000000000000000000000000000000000000000000000a4
:17108c0000000000000000000000000000000000000000000000004d
:2010a300000000000c302000000000000000000000000000000000000000000000000000d1
:2010c30000000000000000000000000000000000000000000000000000000000000000000d
:1610e30000000000000000000000000000000000000000000000f7
:2010f9000000000000c3000000000000000000000000000000000000000000000000000014
:201119000000000000000000000100000000000000000000000000000000000000000000b5
:1711390000000000000000000000000000000000000000000000009f
:20115000000000000c30200000000000000000000000000000000000000000000000000023
:20117000000000000000000006000000000000000000000000000000000000000000000059
:161190000000000000000000000000000000000600000000000043
:2011a6000000000000c3000000000000000000000000000000000000000000000000000066
:2011c600000000000000000000000000000000000000000000000000000000000000000009
:1711e6000000000000000000000000000000000000000000000000f2
:2011fd00000000000c30200000000000000000000000000000000000000000000000000076
:20121d000000000000000000000000000000000000000000000000000000000000000000b1
:16123d00000000000000000000000000000000000000000000009b
:201253000000000000c30000000000000000000000000000000000000000000000000000b8
:2012730000000000000000000000000000000000000000000000000000000000000000005b
:17129300000000000000000000000000000000000000000000000044
:2012aa00000000000c302000000000000000000000000000000000000000000000000000c8
:2012ca00000000000000000001000000000000000000000000000000000000000000000003
:1612ea0000000000000000000000000000000000000000000000ee
:201300000000000000c300000000000000000000000000000000000000000000000000000a
:2013200000000000000000000010000000000000000000000000000000000000000000009d
:17134000000000000000000000000000000000000000000000000096
:20135700000000000c3020000000000000000000000000000000000000000000000000001a
:20137700000000000000000000001c00c0400000000000000000000000000000000000003a
:161397000000000000000000000000000000000000000000000040
:2013ad000000000000c300000000000000000000000000000000000000000000000000005d
:2013cd000000000000000000000040000000000000000000000000000000000000000000c0
:1713ed000000000000000000000000000000000000000000000000e9
:20140400000000000c3020000000000000000000000000000000000000000000000000006c
:201424000000000000000000000000000000000000000000000000000000000000000000a8
:161444000000000000000000000000000000000000000000000092
:20145a000000000000c30000000000000000000000000000000000000000000000000000af
:20147a00000000000000000000000000000000000000000000000000000000000000000052
:17149a0000000000000000000000000000000000000000000000003b
:2014b100000000000c302000000000000000000000000000000000000000000000000000bf
:2014d1000000000000000000000e00000000000000000000000000000000000000000000ed
:1614f100000000800000000000000000000000002000040e0f40e4
:201507008000000000c3000000000000000000000000000000000000000000000000000081
:201527000000000000000000000000000000000000000000000000000000000000000000a4
:17154700000000000000000000000000000000000400038100f00015
:20155e00000000000c30200000000000000000000000000000000000000000000000000011
:20157e0000000000000000000c000e00000000000000000000000000000000000000000033
:16159e000000000000000000000000000000000000000000000037
:2015b4000000000000c3000000000000000000000000000000000000000000000000000054
:2015d400000000000000000000c00020000000000000000000000000000000000000000017
:1715f4000000000000000000000000000000000000000000000000e0
:20160b00000000000c30200000000000000000000000000000000000000000000000000063
:20162b0000000100000000000010000000000000000000000000000000000000000000008e
:16164b000000000000000000000000000000000000000000000089
:201661000000000000c30000000000000000000000000000000000000000000000000000a6
:20168100000000000000000000010000000000000000000000000000000000000000000048
:1716a100000000000000000000000000000000000000000000000032
:2016b800000000000c302000000000000000000000000000000000000000000000000000b6
:2016d8000000000000000000061000000000000000000000000000000000000000000000dc
:1616f80000000000000000000000000000000000000000000000dc
:20170e000000000000c30000000000000000000000000000000000000000000000000000f8
:20172e0000000000000000000001600000000000000000000000000000000000000000003a
:17174e00000000000000000000000000000000000000000000000084
:20176500000000000c30200000000000000000000000000000000000000000000000000008
:2017850000000000000000000c1000000000000000000000000000000000000080000000a8
:1617a500000000000000000000000000000000000000000000002e
:2017bb000000000000c300000000000000000000000000000000000000000000000000004b
:2017db000000000000000000004100000000000000000000000000000000000000000000ad
:1717fb000000000000000000000000000000000000000000000000d7
:20181200000000000c3020000000000000000000000000000000000000000000000000005a
:20183200000000000000000000102000000000000000000000000000000000000000000066
:161852000000000000000000000000000000000000000000000080
:201868000000000000c300000000000000000000000000000000000000000000000000009d
:201888000000000000000000000101c000000000000000000000000000000000000000007e
:1718a800000000000000000000000000000000000000000000000029
:2018bf00000000000c302000000000000000000000000000000000000000000000000000ad
:2018df00000000000000000000000001600000000000000000000000000000000000000088
:1618ff0000000000000000000000000000000000000000000000d3
:201915000000000000c30000000000000000000000000000000000000000000000000000ef
:20193500000000000000000000000003800800000000000000000000000000000000000007
:1719550000000000000000000000000000000000000000000000007b
:20196c00000000000c302000000000000000000000000000000000000000000000000000ff
:20198c0000000000000000000000000000000000000000000000000000000000000000003b
:1619ac000000000000000000000000000000000000000000000025
:2019c2000000000000c3000000000000000000000000000000000000000000000000000042
:2019e2000000000000000000000000000000000000000000000000000000000000000000e5
:171a020000000000800000000000000000000000000000000000004d
:201a1900000000000c30200000000000000000000000000000000000000000000000000051
:201a390000000000000000000000000000000000000000000000000000000000000000008d
:161a59000000000000000000000000000000000000000000000077
:201a6f000000000000c3000000000000000000000000000000000000000000000000000094
:201a8f000000000000000000000100000000004000000000000000000000000000000000f6
:171aaf0000000000000000000000000000000000010000000000001f
:201ac600000000000c302000000000000000000000000000000000000000000000000000a4
:201ae60000000000000000000c000e0000002800000000000000000000000000000000009e
:161b060000000000000000000000000000000000000000000000c9
:201b1c000000000000c30000000000000000000000000000000000000000000000000000e6
:201b3c00000000000000000000c000000000000000000000000000000000000000000000c9
:171b5c00000000000000000000000000000000000000000000000072
:201b7300000000000000000000000000000000000000000000000000000000000000000052
:201b9300000000000000000000000000000000000000000000000000000000000000000032
:161bb300000000000000000000000000000000000000000000001c
:201bc9000000000000000000000000000000000000000000000000000000000000000000fc
:201be9000000000000000000000100000000000000000000000000000000000000000000db
:171c09000000000000000000000000000000000000000000000000c4
:201c20000000000000000000000000000000000000000000000000000000000000000000a4
:201c40000000000000000000060000000000000000000000000080000000000000000000fe
:161c6000000000000000000000000000000000000000000000006e
:201c760000000000000000000000000000000000000000000000000000000000000000004e
:201c960000000000000000000000000000000000000000000000100000000000000000001e
:171cb600000000000000000000000000000000000000000000000017
:201ccd000000000000000000000000000000000000000000000000000000000000000000f7
:201ced000000000000000000000000000000000000000000000000000000000000000000d7
:161d0d0000000000000000000000000000000000000000000000c0
:201d23000000000000000000000000000000000000000000000000000000000000000000a0
:201d4300000000000000000000000000000000000000000000000000000000000000000080
:171d6300000000000000000000000000000000000000000000000069
:201d7a00000000000000000000000000000000000000000000000000000000000000000049
:201d9a00000000000000000000000e0000000000000000000000000000000000000000001b
:161dba000000000000000000000000000000000000000000000013
:201dd0000000000000000000000000000000000000000000000000000000000000000000f3
:201df0000000000000000000000000200000000000000000000000000000000000000000b3
:171e10000000000000000000000000000000000000000000000000bb
:201e270000000000000000000000000000000000000000000000000000000000000000009b
:201e4700000000000000000000000001c004000000000000000000000000000000000000b6
:161e67000000000000000000000000000000000000000000000065
:201e7d00000000000000000000000000000000000000000000000000000000000000000045
:201e9d00000000000000000000000000020000000000000000000000000000000000000023
:171ebd0000000000000000000000000000000000000000000000000e
:201ed4000000000000000000000000000000000000000000000000000000000000000000ee
:201ef4000000000000000000000000000000000000000000000000000000000000000000ce
:161f140000000000000000000000000000000000000000000000b7
:201f2a00000000000000000000000000000000000000000000000000000000000000000097
:201f4a00000000000000000000000000000000000000000000000000000000000000000077
:171f6a00000000000000000000000000000000000000000000000060
:201f8100000000000000000000000000000000000000000000000000000000000000000040
:201fa1000000000000000000000000000000000000000000000040000000000040000000a0
:161fc1000000000000000000000400000000000000000000000006
:201fd7000000000000000000000000000000000000000000000000000000000000000000ea
:201ff700000000000000000000010003c000004000000000000100000000000004000000c1
:17201700000000100000000000004000000000000100000000000061
:20202e00000000000000000000000000000000000000000000000000000000000000000092
:20204e0000000000000000000400000000000000000000000010000000000000400000001e
:16206e000000010000000000000400000000000010000000000047
:2020840000000000000000000000000000000000000000000000000000000000000000003c
:2020a400000000000000000000c0000000000000000000000000000000000000000000005c
:1720c400000000000000000000000000000000000000000000000005
:2020db000000000000000000000000000000000000000000000000000000000000000000e5
:2020fb00000000000000000000900000000000000100000000000000000000000000000034
:16211b0000000040004000000000000a0000000000000000000024
:2021310000000000000000000000000000000000000000000000000000000000000000008e
:202151000000000000000000000100038000000000f00000000000000000000000000000fa
:1721710000000000002800000000000100000000000000000000002e
:20218800000000000000000000000000000000000000000000000000000000000000000037
:2021a80000000000000000000610000000018000000203d0260000000000001800500dee22
:1621c800b4000000000000000000000072a940000000034ca520de
:2021de000000000000000000000000000000000000000000000000000000000000000000e1
:2021fe00000000000000000000010000000000000000403c0000000000000000000080ba0a
:17221e0001004000340000000000000099c2a80000000014055000c8
:20223500000000000000000000000000000000000000000000000000000000000000000089
:20225500000000000000000004100000000000200000000000002000000000300000077a64
:1622750081000000028000000000001e3b828000001628000000b7
:20228b00000000000000000000000000000000000000000000000000000000000000000033
:2022ab00000000000000000000414c000000000400000000000003c00000000200100000ad
:1722cb002800000000400000000000010f4000000000040000000040
:2022e2000000000000000000000000000000000000000000000000000000000000000000dc
:20230200000000000000000000101c00000000000000000000000000000000000070a0007f
:1623220000000000068000000000001a1ea0008000800000000047
:20233800000000000000000000000000000000000000000000000000000000000000000085
:202358000000000000000000000100200000000000000000000000000000000000009000b4
:1723780000000000002c00000000000000c2000010134000000000fd
:20238f0000000000000000000000000000000000000000000000000000000000000000002e
:2023af000000000000000000000e0000e010000000000000000000000a0f480000000000af
:1623cf0000000400070000000000000000000000002000000000cd
:2023e5000000000000000000000000000000000000000000000000000000000000000000d8
:202405000000000000000000000000000200000000000000000000000000f00000000c00b9
:17242500000000000040000000000000000000000003c0000000009d
:20243c00000000000000000000000000000000000000000000000000000000000000000080
:20245c000000000000000000000000380000000000000000000000000000000000008000a8
:16247c0000000001c026a0a000000500000000000000000000001e
:2024920000000000000000000000000000000000000000000000000000000000000000002a
:2024b2000000000000000000000000000000000000000000000000000000000000001000fa
:1724d200000000000200d00000000008000000000000000000000019
:2024e9000000000000000000000000000000000000000000000000000000000000000000d3
:20250900000000000000000000000000000000000000000000000000000000000080000032
:1625290000000000068da0103000000a00000000001c0000000003
:20253f0000000000000000000000000000000000000000000000000000000000000000007c
:20255f00000000000000000000000000000000000000000000000000000000000003000059
:17257f00000000000003f00000000000b00000000000200000000082
:20259600000000000000000000000000000000000000000000000000000000000000000025
:2025b6000000000000000000040000000000000000000000000000000000000000000302fc
:1625d600950400000005a0a00000000000000000000007ca00013f
:2025ec000000000000000000000000000000000000000000000000000000000000000000cf
:20260c00000000000000000000c00000000000000000000000000000000000000003007873
:17262c00000000000000300a2000000000000000000003bd00a000dd
:20264300000000000000000000000000000000000000000000000000000000000000000077
:20266300000000000000000000000000000000000138002000000068c8d140000031f72075
:1626830000000040003d80200000800072bc300040000000000006
:20269900000000000000000000000000000000000000000000000000000000000000000021
:2026b9000000000004000000000100000000000000b03400000003423f95200000000a9c39
:1726d900028040000000eda12000003000203c2000000000000000ce
:2026f0000000000000000000000000000000000000000000000000000000000000000000ca
:2027100000000000000000000600000000018008007a65a0060000005f08001800101033c3
:1627300000086001601fc0f001800000723c30060840040000004a
:20274600000000000000000000000000000000000000000000000000000000000000000073
:20276600000000000000000000000000000000007000b258040000000da00000080d8b0088
:17278600300000000000c00f0000000000003c040009c3c000000071
:20279d0000000000000000000000000000000000000000000000000000000000000000001c
:2027bd0000000000000000000000000000000000003a65a000000003fc80020008f1816f53
:1627dd009d80d0000000ea0400000019523c300c0014056d810021
:2027f3000000000000000000000000000000000000000000000000000000000000000000c6
:202813000000000000000000000000000000000100002a58040800001c00000000050ab338
:172833007bc208800038c0500100003080803c00801402d5d41004c1
:20284a0000000000000000000000000000000000000000000000000000000000000000006e
:20286a0000000000000000000000000000000007183265a0000034381ad0020004980b29d0
:16288a00558000000020ca0400000199523c30000024007aa0409f
:2028a000000000000000000000000000000000000000000000000000000000000000000018
:2028c0000000000000000000000000024000000008003258000000665c0e001000070c5cd5
:1728e0003c0200000001c0502000000080803c000001e0000a00004b
:2028f7000000000000000000000000000000000000000000000000000000000000000000c1
:20291700000040000000000000000001601000081a3a44b000001463deb5420000001f2c08
:16293700200000006040afa4001000007a3c38008a1c3ac0a541f3
:20294d0000000000000000000000000000000000000000000000000000000000000000006a
:20296d000000000000000000000040000200000050ef3210800000002f0300000007089333
:17298d00000000003428d0f50100000000003c0000002404000200ab
:2029a400000000000000000000000000000000000000000000000000000000000000000013
:2029c4000000000000000000000000000000000d001244b400000e280000000000b80fedf2
:1629e40041010000404eca04001000005a3c320006000078f540b4
:2029fa000000000000000000000000000000000000000000000000000000000000000000bd
:202a1a0000000000000000000000000000000000100bb210000000238000000000070f3acc
:172a3a0028881000363420a02000800000003c00000002810f5010cd
:202a5100000000000000000000000000000000000000000000000000000000000000000065
:202a7100000000000000000000000000000000001a3a44b0000004397d1a01000080003870
:162a9100144000000041ca05100009805a3c3000040003400040e5
:202aa70000000000000000000000000000000000000000000000000000000000000000000f
:202ac70000000000000000000000000000000000000f2210800002425fb3f00000170b5472
:172ae700028000002c20c0500000001000803c00001400060a5004b6
:202afe000000000000000000000000000000000000000000000000000000000000000000b8
:202b1e0000000000000000000c000e0000000000085a44b040003c7000000000000085e6d0
:162b3e0088000000e0000000000008005a15500000000000000052
:202b5400000000000000000000000000000000000000000000000000000000000000000061
:202b7400000000000000000000c0002000000000010bb21000000146c0000000000010d2aa
:172b9400d48000000e000000000000100081540400000000000000df
:202bab0000000000000000000000000000000000000000000000000000000000000000000a
:202bcb000000000000000000001c000000000008193a04b00000006ec8d140000078d92304
:162beb00d5600001400400080000001e7e8cc000000001ff630007
:202c01000000000000000000000000000000000000000000000000000000000000000000b3
:202c210000000000000000000001000000000000118d2210100000026fa5200001801a548d
:172c41003c08408000000000020005f0c53330000001c3adb39000a5
:202c580000000000000000000000000000000000000000000000000000000000000000005c
:202c780000000000000000000610000000018008017244b00600000548f5001800518f33c3
:162c980045400001c01ca0f801a8070a76a10087000002082102a7
:202cae00000000000000000000000000000000000000000000000000000000000000000006
:202cce000000000000000000000100000000000090b9321000000003c30f520000010ebf65
:172cee00948000000000000f00010011094084001000401501200047
:202d05000000000000000000000000000000000000000000000000000000000008000000a6
:202d250000000000000000000c10800000000000183a04b0000004600eef2001385181b4ac
:162d45006800000147be9420010007807f1ec00c021c00cec76250
:202d5b00000000000000000000000000000000000000000000000000000000000000000058
:202d7b0000000000000000000041000000000000010d26100000000424bdf0142a8010d33d
:172d9b00ae800000027ccd83201005000733b400c00020160d3800c7
:202db200000000000000000000000000000000000000000000000000000000000000000001
:202dd200000000000000000000100000000000550a3265a000000002002442b000f800002b
:162df2000000000346d6b5e003002f1ebf0f588c06006f4ca14073
:202e080080000000000000000000000000000000000000000000000000000000000000002a
:202e2800000000000000000000010000000000100900325800000040140180070001800089
:172e4800000000061427782e083000b10181f200c0024214ed180012
:202e5f00000000000000000000000000000000000000000000000000000000000000000053
:202e7f00000000000000000000000001c0000008003a65a000000071fe05000000501dbd8d
:162e9f0001000000000000000010000073bc000020a02f7c8400ee
:202eb5000000000000000000000000000000000000000000000000000000000000000000fd
:202ed5000000000000000000000000038008000050002e58000001400e00f00020070e17f1
:172ef500494050060000000000020090c1803c00080047dd8210001a
:202f0c000000000000000000000000000000000000000000000000000000000000000000a5
:202f2c0000000000000000000000000000000005801a65a000005c00ce4202000001cf2083
:162f4c00004000006040000000000b9df6b3d08000802b4ec762cc
:202f620000000000000000000000000000000000000000000000000000000000000000004f
:202f8200000000000000000000000000000000000000b25880000823bd043000000008146d
:172fa20001402000be3400000000381983012a80003004340e380098
:202fb9000000000000000000000000000000000000000000000000000000000000000000f8
:202fd90000000000000000000000000000000001803a65a000001c2400000000023189ea32
:162ff90088000020600fa05000000f8006154000001e6a0e5500e6
:20300f000000000000000000000000000000000000000000000000000000000000000000a1
:20302f000000000000000000000000400000000000002258000003660000000000431b936d
:17304f00148000000000000501400058a342a8000403e2dd0aa0003b
:2030660000000000000000000000000000000000000000000000000000000000000000004a
:2030860000000000000000000c001c000000000000da3c0000000003d8a5000000700d27c8
:1630a6009d8500026037fa7001002000b74f5044003c020db10038
:2030bc000000000000000000000000000000000000000000000000000000000000000000f4
:2030dc00000000000000000000c00020000000000003003c000001428d0552000001809776
:1730fc00bdc000003e014b01001005f001b5f2014000e3bde720041c
:20311300000000000c30200000000000000000000000000000000000000000000000000040
:20313300000000000000000000000000000000001903bc1800017c014fbd50000480033dee
:163153004900040063948a000000078b574cc000021c63dcf50051
:203169000000000000c3000000000000000000000000000000000000000000000000000083
:203189000000000000000000000100000000000000d003c0000000628ecfd000002b091ab5
:1731a900988e1020000010a00000085889af30000000c01e0a000059
:2031c000000000000c30200000000000000000000000000000000000000000000000000093
:2031e000000000000000000006000000000180038e3eb050060094005ca5001a0000af32e3
:16320000bc0060a8022ee504b180000e028840860680021ca30203
:203216000000000000c30000000000000000000000000000000000000000000000000000d5
:203236000000000000000000000000000000000058e3be0c200017e005055010100509d8fc
:173256003fc000005c2a402121000011074048000004002c05300055
:20326d00000000000c302000000000000000000000000000000000000000000000000000e5
:20328d00000000000000000000000000000000151e9344001c000029fe0610001000037a31
:1632ad00f4880021e3a5fa000b038d0b1231d894001c3848d12208
:2032c3000000000000c3000000000000000000000000000000000000000000000000000028
:2032e3000000000000000000000000000000000050a3b80000c00003e6e050080015009496
:173303002b400000ae3959420030001091438e02c017e0010d10004d
:20331a00000000000c30200000000000000000000000000000000000000000000000000037
:20333a00000040000000000000000e00000000098aba169010000600080f0000009197627b
:16335a0080050421c294e1a00300001817b95001028003ca400011
:203370000000000000c300000000000000000000000000000000000000000000000000007a
:2033900000000000000000000000002000000000b807c3d4000000200100f010000108007d
:1733b000280000820223db3f08300000012b02020010021ea4a00041
:2033c700000000000c3020000000000000000000000000000000000000000000000000008a
:2033e700000000000000000000000001c01020018ab6b45000002038000000000098fd6e35
:16340700800000100245f8101000180e9ab1d400001c3cdaea500f
:20341d000000000000c30000000000000000000000000000000000000000000000000000cc
:20343d0000000000000000000000000002000000000bae840400014400000000100f9e9694
:17345d00e00000000065eb47200002f1a7ab4e00080023ad84a00032
:20347400000000000c302000000000000000000000000000000000000000000000000000dc
:2034940000000000000000000000000000000008003ef450000000060b02004000800bb8f8
:1634b4002009000203a6e66010000500b73d4000022620fea500b4
:2034ca000000000000c300000000000000000000000000000000000000000000000000001f
:2034ea0000000000000000000000000000000000108be148000003c3fd801000000b00940c
:17350a00000000002443ed9600000000df4140000003d72f05500002
:20352100000000000c3020000000000000000000000000000000000000000000000000002e
:20354100000000000000000000008000000000000052c20000011c387e0a000000d9806b35
:16356100d500c00066b7ea400000011e7b28c08000002000000056
:203577000000000000c3000000000000000000000000000000000000000000000000000071
:2035970000000000000000000000b403c000000070a56400020009e3f5000010000110f030
:1735b7003e804c0000246b54000000f000428c00000006c00000008c
:2035ce00000000000c30200000000000000000000000000000000000000000000000000081
:2035ee0000000000000000000400000000000001803e7450000020047a0f00000201d37a39
:16360e0081000016006cf5510103a70133b14080002e700000006f
:203624000000000000c30000000000000000000000000000000000000000000000000000c3
:20364400000000000000000000c0000000000000500ba54802000142acf8f20000100c0c5b
:1736640028001000a425ed0700100578d083142000006400000000e2
:20367b0000000000000000000000000000000000000000000000000000000000000000002f
:20369b0000000000000000000090000000000000013859a0000220006c0a100000000300a2
:1636bb00020008014636c1a00020081803bc10000164056dea4001
:2036d1000000000000000000000000000000000000000000000000000000000000000000d9
:2036f100000000000000000000010000000001000080b598040002400200a0000000000002
:173711000000000000034b3f000100100043c0000000433db4a0002c
:20372800000000000000000000000000000000000000000000000000000000000000000081
:2037480000000000000000000610000000018000017265b006000064d8d01218020007a35a
:16376800c304600142cd8bd4218000011316800600007d79ab4083
:20377e0000000000000000000000000000000000000000000000000000000000000000002b
:20379e00000000000000000000010000000000007080365800000006410d000000400008f0
:1737be0003c400022433c0fe200020008902a8000003c22c907000b2
:2037d5000000000000000000000000000000000000000000000000000000000000000000d4
:2037f50000000000000000000410002000000000183a25b00c00202acadb00300000032308
:16381500c304c8c1c6a08a0003100000bfae00840016604ac500d4
:20382b0000000000000000000000000000000000000000000000000000000000000000007d
:20384b00000000000000000000c14404000000000000a6580080004426ca7000000000082a
:17386b0003c00c400042d050000080000b40900040f76004ec0000f3
:20388200000000000000000000000000000000000000000000000000000000000000000026
:2038a200000000000000000000105c0000000000185265b000003c00d8a00800000003a3b9
:1638c200c38000c2c706b8b00000000007bc1000028c714dab40ac
:2038d8000000000000000000000000000000000000000000000000000000000000000000d0
:2038f800000000000000000000010020000000000000b658000002e01500008800000008fa
:1739180003c4000034286b42200000000043c00000f0c72cb07000a2
:20392f00000000000000000000000000000000000000000000000000000000000000000078
:20394f00000000000000000000001e00c0000000003a65b000001e7aea5b00000079e023d2
:16396f00c1800003c001e96020000f8c07c04800003e3edfd100fe
:20398500000000000000000000000000000000000000000000000000000000000000000022
:2039a500000000000000000000000000000800000000b2580100004026ce700000108000bb
:1739c5003c00000026034069000000b1037408020403c7adea000046
:2039dc000000000000000000000000000000000000000000000000000000000000000000cb
:2039fc00000000000000000000000000000000081b7a65b040000678d8a0600280000000e1
:163a1c000000000200000000000001019f0000008000006cc5023e
:203a3200000000000000000000000000000000000000000000000000000000000000000074
:203a52000000000000000000000000000000000010c03658000000001500020010000900c6
:173a7200000000000438000000000008cfc28004040002430c50003f
:203a890000000000000000000000000000000000000000000000000000000000000000001d
:203aa90000000000000000000000000000000001803a65b040400000fafa010102000000b5
:163ac900000014a802678f0000000000331550400806684ac500d6
:203adf000000000000000000000000000000000000000000000000000000000000000000c7
:203aff00000000000000000000000000000000210000a65800020800040ff2000050000029
:173b1f00000001010021600f00800000d081540000000404bc000014
:203b360000000000000000000000000000000000000000000000000000000000000000006f
:203b560000000000000000000400000000010001805a65b0104000016a0403000000c000d8
:163b760000000408000fcde02000000f00169000801e00000000fe
:203b8c00000000000000000000000000000000000000000000000000000000000000000019
:203bac00000000000000000000c00000000010000000b658000200000100400400000000d4
:173bcc00000000a17c0020de00800000db029420000022c0000000d4
:203be3000000000000000000000000000000000000000000000000000000000000000000c2
:203c030000000000000000000000000000000008011a25b000001605ec5000010200073a0e
:163c230081000002060cd00400000f8a5b34400120140200a5607e
:203c390000000000000000000000000000000000000000000000000000000000000000006b
:203c5900000000000000000000010000000000001080a258100003c283050000084008080b
:173c7900280220a03c006a8000000011007344001400202c05a01047
:203c9000000000000000000000000000000000000000000000000000000000000000000014
:203cb00000000000000000000600000000018000187265b006801c020aa000180000003335
:163cd000c180600a13ccd08000000001dfa800160c8000ec0a00e4
:203ce60040000000000000000000000000000000000000000000000000000000000000007e
:203d060000000000000000000000000000000000d1b02658000400002d0500000000000068
:173d26003c00000164395d0000000000a583d4000010000200a000a1
:203d3d00000000000000000000000000000000000000000000000000000000000000000066
:203d5d0000000000000000000004000000000000001a25b0000c2061cc0800313000002b66
:163d7d00c14004020026e0702000000002f400040000604a4702a6
:203d9300000000000000000000000000000000000000000000000000000000000000000010
:203db300000000000000000000000000000000000000a658000001403e90000008090000d2
:173dd3003c0000a00403f005000000b007278020ca00c01c081108bc
:203dea000000000000000000000000000000000000000000000000000000000000000000b9
:203e0a0000000000000000000000000000000005001a65a000010600ec80020000000023dc
:163e2a00c1000000c04ee024a013078a9ba940000000020e0200d5
:203e4000000000000000000000000000000000000000000000000000000000000000000062
:203e60000000000000000000000000000000000008002658040000029e0000000000000414
:173e80003c004000002c2002010000d00b8028200000000cd0108051
:203e970000000000000000000000000000000000000000000000000000000000000000000b
:203eb700000000000000000000001c00c0000000001a65a000002628fa5e03008000007b4c
:163ed700c1000001e6d485f20008081c3f97c000a63e395ca70000
:203eed000000000000000000000000000000000000000000000000000000000000000000b5
:203f0d00000000000000000000002000000400000000aa5800000064070a5000030b00009b
:173f2d003c0800001478105f004000719b0028000400640de9b000bc
:203f440000000000000000000000000000000000000000000000000000000000000000005d
:203f640000000000000000000000000000000000009a3c000000003f6f7440000000000005
:163f84000000000002e7c0000000651cfbab0080001e3ddcdb02c3
:203f9a00000000000000000000000000000000000000000000000000000000000000000007
:203fba00000000000000000000000000000000001009803c00000342348a430000000000cc
:173fda0000000000246340050000053105003000000002ad0f70006b
:203ff1000000000000000000000000000000000000000000000000000000000000000000b0
:204011000000000000000000000000000000280180000000000006664b08000000800000a7
:1640310000000001c037e345300005007211c080011c02ec020252
:20404700000000000000000000000000000000000000000000000000000000000000000059
:204067000000000000000000000000000000000000000000000003464ce0000000070e00af
:1740870000000000023e703008400050014108000008003c00028496
:20409e00000000000000000000000000000000000000000000000000000000000000000002
:2040be0000000000000000000c000e000003000000000000000014000000000001000000b0
:1640de0000000000065f8a55000003805f294010000078000000b5
:2040f4000000000000000000000000000000000000000000000000000000000000000000ac
:20411400000000000000000000c00020000010000000000000000022c0000000000f0000aa
:174134000000000000227a4700000058010154000a000000000000d9
:20414b00000000000000000000000000000000000000000000000000000000000000000054
:20416b00000080000000000000520c00000000099956c200004000001ef0404000000db20f
:16418b0094001000067dd77000002d1e07bc10004e006a68180852
:2041a1000000000000000000000000000000000000000000000000000000000000000000fe
:2041c10000000000000000000001000000000000b1f7ac000000c000010f0018000000544d
:1741e100154401004022c9dd010004399043c00000000017d200802b
:2041f8000000000000000000000000000000000000000000000000000000000000000000a7
:20421800000000000000000006100000000180051f0748080600000000000018000003b3a0
:16423800d4006008005ee000018005005e3c0046043668da0a0802
:20424e00000000000000000000000000000000000000000000000000000000000000000050
:20426e000000000000000000000100000000000050d978400000000000000000000000b09e
:17428e0028000001003bf050008000f805803c000001c00200a010c9
:2042a5000000000000000040000000000000000000000000000000000000000000000000b9
:2042c50000000000000000000410002000002307800733c0840000700000000000100331c9
:1642e5001c08c000002dcf54000050181f2800000020615aa54020
:2042fb00000000000000000000000000000000000000000000000000000000000080000023
:20431b00000000000000000000c100000000000000e0033c44c0080000000000200088b43a
:17433b00108200000002e00a000020b0004280000001426d0f50103c
:2043520000000000000000000000000000000000000000000000000000000000000000004b
:204372000000000000000000001000000000000008927dd200000000000000028078e7bb96
:16439200d40000000020099400100b883a885a80009404ec0100c0
:2043a8000000000000000000000000000000000000000000000000000000000000000000f5
:2043c80000000000000000000001000000000000700367c40000000000000000100180b0f5
:1743e800280010000000cd660002a011f040840000042376fa7000e5
:2043ff0000000000000000000000000000000000000000000000000000000000000000009e
:20441f00000000000000000000000000400000011cbb081000200000000000000038e532de
:16443f00940020e0029e90808000000076d050000040041cc042ab
:20445500000000000000000000000000000000000000000000000000000000000000000047
:2044750000000000000000000000000000040000000964e000001400000000000001195c4c
:17449500154040a000425e00000000000db300a10001c2010c00000a
:2044ac000000000000000000000000000000000000000000000000000000000000000000f0
:2044cc000000000000000000000000000000000100f60e100000000000000000008000003b
:1644ec0000000001421ee00000030b999680400000043bcba14091
:20450200000000000000000000000000000000000000000000000000000000000000000099
:20452200000000000000000000000000000000000883a04000000000000000000007000007
:1745420000000000026e70500000029893269c0000000385d7a00044
:20455900000000000000000000000000000000000000000000000000000000000000000042
:20457900000000000000000000020000000000011e3e0e1000200000000000000010000075
:164599000000000406edc0a00000250196a14000000e02fe0541c4
:2045af000000000000000000000000000000000000000000000000000000000000000000ec
:2045cf0000000000000000000000000000000000000524800004000000000000000000001f
:1745ef00000000003c22e0f5100004088b791401000003850fa28094
:20460600000000000000000000000000000000000000000000000000000000000000000094
:2046260000000000000000000c001c000000000000f2928000000000000000000278ffebe4
:16464600d500000046a00180200000019750100000000400000006
:20465c0000000000000000000000000000000000000000000000000000000000000000003e
:20467c00000000000000000000c00020000000001003b178040000024000000000501cfc54
:17469c003c0800040602c02408000000eba0402000000300000000dd
:2046b3000000000000000000000000000000000000000000000000000000000000000000e7
:2046d300000000000000000000000000000001001800000000001c71600080010001e73523
:1646f300dc020210003405a410000b185e7440008000695cf0006a
:20470900000000000000000000000000000000000000000000000000000000000000000090
:2047290000000000000000000001000000000000d00000000000000400000020000010fa71
:174749007b8000408003e0ff0800009005e28000040006ce0f508006
:20476000000000000000000000000000000000000000000000000000000000000000000039
:2047800000000000000000000600000000018000190000000040000160008018000000013f
:1647a000980060000001af040180000a17b8808600a038f83000f7
:2047b6000000000000000000000000000000000000000000000000000000000000000000e3
:2047d60000000000000000000000000000000000f0800000000a000000800000000009338d
:1747f600e6460000000010f000000251b00388000017c3e7fb100422
:20480d0000000000000000000000000000000000000000000000000000000000000000008b
:20482d00000000000000000000000000000089400017154000601c054000801100000020c4
:16484d003d00c0000000e0f410400180102950008006720081426f
:20486300000000000000000000000000000000000000000000000000000000000000000035
:20488300000000000000000000000000000000069001c3fc000a000282a000022800000463
:1748a30003c240000024100f00801078000294010401628404200008
:2048ba000000000000000000000000000000000000000000000000000000000000000000de
:2048da00000000000000000000000e00000000058037085040003e01e0008000000000734a
:1648fa00e8800001e3800a560000070ddbac1001008062c0e70146
:20491000000000000000000000000000000000000000000000000000000000000000000087
:2049300000000000000000000000002000000000080526dc000001e002800000000000f4e1
:174950003d4000400043c05a00000250afebc8001037540ec8100001
:20496700000000000000000000000000000000000000000000000000000000000000000030
:20498700000000000000000000000001c08020000a00000000800000e000800000700070e5
:1649a700cc0c00400001cf060000000087a81000002404faf500b6
:2049bd000000000000000000000000000000000000000000000000000000000000000000da
:2049dd000000000000000000000080000000000170c000000000080382a0000000000000dc
:1749fd000cc00000003c00f0200000000d4140000001e224050000f1
:204a1400000000000000000000000000000000000000000000000000000000000000000082
:204a3400000000000000000000000000000000500e93a94400000038c00080000518007a75
:164a540081800001d700cf0400000d815f01404040a6074ce540d4
:204a6a0000000000000000000000000000000000000000000000000000000000000000002c
:204a8a0000000000000000000000c0000000000250a942a8000000024280000000200c94e3
:174aaa0014000000020010f000800010e04014000a15c34eb40090a7
:204ac1000000000000000000000000000000000000000000000000000000000000000000d5
:204ae1000000000000000000000000000000500008d311d060000001e00080000010d820e0
:164b0100150400000001cf041000000e97168000008003f9ac003e
:204b170000000000000000000000000000000000000000000000000000000000000000007e
:204b37000000000000000000000003c000000000010977880000000000a00000002098f446
:174b570002800000002c10f0208028010382a8000000020de0c000f4
:204b6e00000000000000000000000000000000000000000000000000000000000000000027
:204b8e0000000000000000000500000000010000001f485020002020e80010400000c77873
:164bae00010400000701af04000001809ae140200434016ae2024e
:204bc4000000000000000000000000000000000000000000000000000000000000000000d1
:204be400000000000000000000d0000000003000000566dc800002c02600a080000000944e
:174c040028000000004000f0008120088da9140000a240160a00004c
:204c1b00000000000c3020000000000000000000000000000000000000000000000000001d
:204c3b00000000000000000000d0000000000028017f5950200036057bf0f00100000380fe
:164c5b0002000828001fc5520000001b7aa94000001c004ba30053
:204c71004000000000c3000000000000000000000000000000000000000000000000000020
:204c9100000000000000000000010000000000001081a2980000014280af02000a000008b1
:174cb10000008040000370ff00000000834154000062c0358030009b
:204cc800000000000c30200000000000000000000000000000000000000000000000000070
:204ce8000000000000000000061000000001800180d311d02600160009f0801800000726e6
:164d08005b206000c01cc0a0018001803abd400600002bec010027
:204d1e000000000000c30000000000000000000000000000000000000000000000000000b2
:204d3e0000000000000000000001000000000000f0057f4400002000008f000000000003ea
:174d5e00258010000000200a00000008bd0280000001441fea70005a
:204d7500000000000c302000000000000000000000000000000000000000000020000000a2
:204d9500000000000000000005108120000010018e5f11d42000000048f08030000000233a
:164db500c00000400300ca0080001798ba7d100000007c1cc0420b
:204dcb000000000000c3000000000000000000000000000000000000000000000000000005
:204deb00000000000000000000c150040000000001097f880000c000000f000000000000b3
:174e0b003c0000000c43c05000000208b97f40000002c7410c00005d
:204e2200000000000c30200000000000000000000000000000000000000000000000000014
:204e420000000000000000000010000000000001180000000000ae00e8f080000000000021
:164e6200000000000776c0100041050a7e28100001163bec0100a8
:204e78000000000000c3000000000000000000000000000000000000000000000000000057
:204e980000000000000000000001000000000000f000000000001540020f000000000000a3
:174eb8000000000080637aa70004100900c280000000001dfa7000f9
:204ecf00000000000c30200000000000000000000000000000000000000000000000000067
:204eef00000000000000000000000001c02000080bfe80d040040060c8f080000000000085
:164f0f0000000000600000000010000072d1c001000602d8b04048
:204f25000000000000c30000000000000000000000000000000000000000000000000000a9
:204f45000000000000000000000000000200000070a52fcc00000004020f00000000000025
:174f6500000000001e28000000028070a76e0440000342f58f1000cb
:204f7c00000000000c302000000000000000000000000000000000000000000000000000b9
:204f9c00000000000000000000000000000000059bfbc8504000006448f080004279c0006b
:164fbc0000000000078000000000079ab6bd40000001356a8000e4
:204fd2000000000000c30000000000000000000000000000000000000000000000000000fc
:204ff2000000000000000000000003c0000000005085a2dc00000406400f000000401000e0
:17501200000000000000000000000030a1828000000006758e500853
:20502900000000000c3020000000000000000000000000000000000000000000000000000b
:205049000000000000000000000000000000000d88db11d060000000e8f0800040580000a6
:16506900000001400227ea54000007009f3d40000140284bac0006
:20507f000000000000c300000000000000000000000000000000000000000000000000004e
:20509f0000000000000000000001000380000040f09b738800058000020f0000048000008d
:1750bf00000000100003c0aa208040380b4140000109c7f5d0c0085b
:2050d600000000000c3020000000000000000000000000000000000000000000000000005e
:2050f60000000000000000000c0000000003000f9bdf11d42000800048f0800000000000c5
:165116000000001203c0000000101808d23d4000423e3acee54082
:20512c000000000000c30000000000000000000000000000000000000000000000000000a0
:20514c000000000000000000004000000000300019f5bb4402001400020f0000000000009f
:17516c0000000000bc7400000002823001c280000a01c02daa400023
:2051830000000000000000000000000000000000000000000000000000000000000000000c
:2051a30000000000000000000002000000001000000000000004200068f0800000000300db
:1651c300020000000624f0a00000550132cc000000006beca500ca
:2051d9000000000000000000000000000000000000000000000000000000000000000000b6
:2051f9000000000000000000000100000000020000000000000000c0000f00400000000381
:17521900c00000000001eb060000000089b6c4000000030e05500063
:2052300000000000000000000000000000000000000000000000000000000000000000005e
:2052500000000000000000000600000000018188000000000600360068f08000000003a374
:16527000c2006000003fa81029800708d2294006001e01ee0322e4
:20528600000000000000000000000000000000000000000000000000000000000000000008
:2052a600000000000000000000000000000000201000000000000140000f00002000000048
:1752c60003c440000401f080100000010fc154000000200f0a3000b7
:2052dd000000000000000000000000000000000000000000000000000000000000000000b1
:2052fd000000000000000000010000000000000000ff29402000000168f08000000000220d
:16531d005a80c0020005c0020000000db62958600616281ec0420f
:2053330000000000000000000000000000000000000000000000000000000000000000005a
:20535300000000000000000000100000000002001007015400000000020f000000000003a8
:175373009a400c000402e0f000001050e742a822000000000c000008
:20538a00000000000000000000000000000000000000000000000000000000000000000003
:2053aa000000000000000000000000000000000500fe954010000004e8f080000700032372
:1653ca00c202c01407800c36a040080e7749400000000200a5408f
:2053e00080000000000000000000000000000000000000000000000000000000000000002d
:2054000000000000000000000000000240000000080703fc0000c002820f000000300008b1
:1754200003c00800800000c3000400f1ed6854000000002c05a010e8
:20543700000000000000000000000000000000000000000000000000000000000000000055
:205457000000000000000000000000016000000d81d311d040a48000e8f080000078e32358
:16547700c20400000035f8100020039c764c0000001e21ece5404b
:20548d000000000000000000000000000000000000000000000000000000000000000000ff
:2054ad000000000000000000000000000208000050d1378800001400020f000000000b08bd
:1754cd0003c00006002f4f010800050889b6c4000081c035c58008a5
:2054e4000000000000000000000000000000000000000000000000000000000000000000a8
:2055040000000000000000000000000000000457017b51d0405006664847410040d000268d
:165524005a800100400000000004000d36b0d08010006808f0415e
:20553a00000000000000000000000000000000000000000000000000000000000000000051
:20555a000000000000000000000000000000000298853f44000200064cee200000078b0398
:17557a009a400000020000000000000097c34400000244010f00103a
:205591000000000000000000000000000000000000000000000000000000000000000000fa
:2055b100000000000000000000000000000044001fd391d02000a000000000000050e3a3ad
:1655d100c20400080224f1120000050016d90000084021e8a040a8
:2055e7000000000000000000000000000000000000000000000000000000000000000000a4
:205607000000004000000000000100000000064001ab7f88000116c00000000004009000de
:1756270003c000104401eb2100004098e9769000010004010a000071
:20563e0000000000000000000000000000000000000000000000000000000000000000004c
:20565e0000000000000000000c000e0000031009800000000c801e0000000002000003a324
:16567e00c200400343bfa8002000078dfa294000000039cb5000fc
:205694000000000000000000000000000000000000000000000000000000000000000000f6
:2056b400000000000000000000c000200000108010e0000000c4000000000000100d00088d
:1756d40003c044003e41f08100800009fbc154000002c20e8d1000c0
:2056eb0000000000000000000000000000000000000000000000000000000000000000009f
:20570b00000000000000000000100000000000018012ccc0000000640af06880000183a3e2
:16572b00c2000014064eaa500000000002bc100000000000000076
:20574100000000000000000000000000000000000000000000000000000000000000000048
:205761000000000000000000000100000000000000eb6bfc02000006400f00000000100866
:1757810003c300000034d055010000000003c004000000000000002a
:205798000000000000000000000000000000000000000000000000000000000000000000f1
:2057b8000000000000000000061000000001800f008029500680066408f04098100003a3bc
:1657d800c2006003c01fcf5001800800063c10060000001af0406d
:2057ee0080000000000000000000000000000000000000000000000000000000000000001b
:20580e000000000000000000000100000000000010a1016800040066410f0100001100088b
:17582e0003c00000360340a0000000b00003c000000000000f000005
:20584500000000000000000000000000000000000000000000000000000000000000000043
:2058650000000000000000000c104000000320138103bc100500007808f040300000012338
:16588500c200000007d78a568100180102bc10148480000cf040d1
:20589b000000000000000000000000000000000000000000000000000000000000000000ed
:2058bb0000000000000000000049000000000100788043c000c003c4010f00070280000860
:1758db003c0000202466ce9a012002d0f043c000840400010f0010da
:2058f200000000000000000000000000000000000000000000000000000000000000000096
:2059120000000000000000000010000000000001809e4cc00c00000000000030051807a337
:16593200c28000020006ad140001880080295000001e001ef04066
:2059480000000000000000000000000000000000000000000000000000000000000000003f
:20596800000000000000000000010000000002807803abfc028000100000000200200000c6
:175988003c0000001c03d942004000d005016804000020000f0000e1
:20599f000000000000000000000000000000000000000000000000000000000000000000e8
:2059bf00000000000000000000000004e000100700033c100000000018f0408000980fa06f
:1659df0014000000005ca0020020000000000000014068000000d7
:2059f500000000000000000000000000000000000000000000000000000000000000000092
:205a1500000000000000000000000003c201000008c003c000040000000f000400010058b0
:175a3500280000001c23c0f000010000000000000000000000000042
:205a4c0000000000000000000000000000000000000000000000000000000000000000003a
:205a6c00000000000000000000000020000002018007bc100080000018f0408038819073a0
:165a8c00c1040000e0008f060000800003bc10004020001cf040cf
:205aa2000000000000000000000000000000000000000000000000000000000000000000e4
:205ac2000000000000000000000000000000000000c043c024040000010f0004018108003b
:175ae2003c0200001c0010f0000000000043c001020140000f0010ed
:205af90000000000000000000000000000000000000000000000000000000000000000008d
:205b190000000000000000000000000000000000005715400000000018f040000001e03364
:165b3900c1020003e78000000000401c000000000216040ef04073
:205b4f00000000000000000000000000000000000000000000000000000000000000000036
:205b6f000000000000000000000000000000000100f903fc20000000010f000400000000e9
:175b8f003c0000003e3400000000020100000000000002810f0004b8
:205ba6000000000000000000000000000000000000000000000000000000000000000000df
:205bc60000000000000000000c000e00000040000ed7154004000000000000120070103362
:165be600c10600004000000000000000000000000016000ef0404e
:205bfc00800000000000000000000000000000000000000000000000000000000000000009
:205c1c00000000000000000000c0000000000000010343fc20400000000000011000cd0027
:175c3c003c00000802000000000000000000000000c000000f00003c
:205c5300000000000000000000000000000000000000000000000000000000000000000031
:205c7300000000000000000000000000000000400077a590400000000ef04004050001aeef
:165c9300c5200000079c00080000080107bc100020200200a54068
:205ca9000000000000000000000000000000000000000000000000000000000000000000db
:205cc900000000000000000000010000000000020090825800000000000f00804000000b74
:175ce900ec6000000040200002003070d043c000000043a405a000f7
:205d0000000000000000000000000000000000000000000000000000000000000000000083
:205d20000000000000000000060000000001800000023c104600000200a540183800877812
:165d400015000000020c8f08018180011f0140060e1e244805008d
:205d560000000000000000000000000000000000000000000000000000000000000000002d
:205d760000000000000000000000000000000018000043c0000000101c05a01000011004fc
:175d960001601000004029f000400000e5828000020003cd0a000029
:205dad000000000000000000000000000000000000000000000000000000000000000000d6
:205dcd00000000000000000000000000000100000a03bc120c0006000cf04040008183be8a
:165ded00c5042004079e8f0801280f195bb1c08c004028eec702af
:205e030000000000000000000000000000000000000000000000000000000000000000007f
:205e230000000000000000000000000000003000010003c000c00020000f00000001000774
:175e4300ec60000000400bf000611810cdc38c044000001d0e30106d
:205e5a00000000000000000000000000000000000000000000000000000000000000000028
:205e7a00000000000000000000000e00000000000003bc10000020001ef0403000801d7a76
:165e9a0095000000000e8f080000001810295000a6003bfb080033
:205eb0000000000000000000000000000000000000000000000000000000000000000000d2
:205ed00000000000000000000000002000000000000043c0200a0240000f008200010ddca8
:175ef00015602000000029f000400010f00294000400042f80000060
:205f070000000000000000000000000000000000000000000000000000000000000000007a
:205f2700000000000000000000000038c010080701033c10400004001af040000000006ef7
:165f4700c5000002005e8f0810000000bba80040000607d8f00bf5
:205f5d00000000000000000000000000000000000000000000000000000000000000000024
:205f7d000000000000000000000000040200010008e003c000040022000f008020000eb3bc
:175f9d00dca020002c342bf0000010000bc3e801006023e5070000a0
:205fb4000000000000000000000000000000000000000000000000000000000000000000cd
:205fd4000000000000000000000000000000000000033c1000a000000cf0408000788ffa01
:165ff40095000008004e8f080000080a9294000042063c1ef0400b
:20600a00000000000000000000000000000000000000000000000000000000000000000076
:20602a0000000000000000000000000000000010009043c02004e1c0010f0000000090b49a
:17604a00156020011c3409f0004000708b816800020006010f000024
:2060610000000000000000000000000000000000000000000000000000000000000000001f
:20608100000000000000000000000000000010081f00000000000028000000000018100078
:1660a1000000000000068f0800000000da8a048c006e0018f040a2
:2060b7000000000000000000000000000000000000000000000000000000000000000000c9
:2060d70000000000000000000000000000000000b0d00000000000440000000000000800dd
:1760f7000000000000342bf001000000cd40b0008002c3400f0000f1
:20610e00000000000000000000000000000000000000000000000000000000000000000071
:20612e000000000000000000040000000003000f00073c100c000e000af040100c18a000c0
:16614e0000000002000c8f081000000b7a8280000000235c000080
:2061640000000000000000000000000000000000000000000000000000000000000000001b
:20618400000000000000000000c0000000003000300043c02040e060000f001100301000d8
:1761a400000000002c3409f000000000f08028040014037f0f00004a
:2061bb000000000000000000000000000000000000000000000000000000000000000000c4
:2061db00000000000000000000b0000000000100009e3c00000000200000000000000000f9
:1661fb0002000014001e9f080868001e9f394000000002def40039
:2062110000000000000000000000000000000000000000000000000000000000000000006d
:206231000000000000000000000100000000000000f9bfc4050002440000000000000b0278
:1762510040008000800008f0040100000fba9c00000003fc9f1000e6
:20626800000000000000000000000000000000000000000000000000000000000000000016
:206288000000000000000000061000000001800908f6568000000038fc0000010000070046
:1662a80002006000000e99680980201902bc10060f8670000000d4
:2062be000000000000000000000000000000000000000000000000000000000000000000c0
:2062de000000000000000000000103c00000000011f1e690000000072e0050800800000255
:1762fe00800000003c002a9600000501f043c00000002000000000f4
:20631500000000000000000000000000000000000000000000000000000000000000000068
:2063350000000000000000000c15400000000000007b2f0080040000000000028000a30094
:166355000200c080000e9f0803000b0c3a02001400000018f04089
:20636b00000000000000000000000000000000000000000000000000000000000000000012
:20638b0000000000000000000041200000000000000f80f00000024000000000000d1002b1
:1763ab00c0000406000008f0011100b005ec0000800000000f0004d3
:2063c2000000000000000000000000000000000000000000000000000000000000000000bb
:2063e200000000000000000000b000000000000000033cc0800600784f080001015007043a
:1664020002000000001c9968000009813e014000400003cc5e00ef
:20641800000000000000000000000000000000000000000000000000000000000000000064
:2064380000000000000000000005000000000000000003cc000003c014d00000280d800212
:17645800800000003c002a9601000070d5c2800000000024f54000d0
:20646f0000000000000000000000000000000000000000000000000000000000000000000d
:20648f0000000000000000000000007cc003000f809b10000000007b7c8003028078830479
:1664af0002000002034c996808000000deb1c080000439ecbc02c5
:2064c5000000000000000000000000000000000000000000000000000000000000000000b7
:2064e500000000000000000000000003020820001809bf04000000043c00000000008002c4
:17650500800000000c7c28960000380095834c000005600f06400063
:20651c0000000000000000000000000000000000000000000000000000000000000000005f
:20653c00000000000000000000000000000000400002014000001e740000000002000780a1
:16655c0002000000e00c8aa0102a070f0029500004000000000044
:20657200000000000000000000000000000000000000000000000000000000000000000009
:206592000000000000000000000000000000000200074028000002e7800000001050000ba4
:1765b20000000000023800aa000100098901680000000000000000f2
:2065c90000000000000000000000000000000000000000000000000000000000140000009e
:2065e900000000000000000000000000000000050e7b215080400403d8f500000078030084
:16660900020000000381af0500000180073c100000140000000059
:20661f0000000000000000000000000000000000000000000000000000000000000000005b
:20663f0000000000000000000000000000000000f10f839c040a0023a70a00840000800b2b
:17665f0080000004000000f0200000000043c00000400380000000ca
:20667600000000000000000000000000000000000000000000000000000000000000000004
:206696000000000000000000040000000000000001f6001820000020fa0500000001a023ce
:1666b600c0800000000000000000001e00000000001c241ef049d9
:2066cc000000000000000000000000000000000000000000000000000000000000000000ae
:2066ec0000000000000000000040000000000028008f03c000001404270000000000100085
:17670c003c0200a11c0000000000000000000000000267800f021869
