:02000000ff00ff
:080002004c6174746963650030
:17000a00694345637562653220323032302e31322e32373934330071
:16002100506172743a2069434534304858314b2d56513130300002
:1b003700446174653a204d617220313120323032362030363a30373a3337007f
:0200520000ffad
:040054007eaa997e69
:02005800510055
:02005a0001059e
:03005c00920020ef
:03005f0062014bf0
:0300620072009099
:0300650082000016
:02006800110085
:02006a00010192
:20006c00000000000000000000000000000000000000000000000000000000000000000074
:09008c000000000000000000006b
:2000950000000000000000000000000000000000000000000000000000000000000000004b
:0a00b5000000000000000000000041
:2000bf00000000000000000000000000000000000000000000000000000000000000000021
:0900df0000000000000000000018
:2000e8000000000000000000000000000000000000000000000000000000000000000000f8
:0a01080000000000000000000000ed
:200112000000000000000000000000000000000000000000000000000000000000000000cd
:09013200000000000000000000c4
:20013b000000000000000000000000000000000000000000000000000000000000000000a4
:0a015b00000000000000000000009a
:200165000000000000040000000000001000000000000040000000001000000000000040d6
:0901850000000000000100000070
:20018e00000000000000000000000000000000000000000000000000000000000000000051
:0a01ae000000000000000000000047
:2001b800000000000004000000000000100000000000004000000000100000000000004083
:0901d8000000000000010000001d
:2001e1000000000000000000000000000000000000000000000000000000000000000000fe
:0a02010000000000000000000000f3
:20020b000000000000000000000000000000000000000000000000000000000000000000d3
:09022b00000000000000000000ca
:200234000000000000000000000000000000000000000000000000000000000000000000aa
:0a02540000000000000000000000a0
:20025e00000000000000000000000000000000000000000000000000000000000000000080
:09027e0000000000000000000077
:20028700000000000000000000000000000000000000000000000000000000000000000057
:0a02a700000000000000000000004d
:2002b10000000000000000000000000000000000000000000000000000000000000000002d
:0902d10000000000000000000024
:2002da00000000000000000000000000000000000000000000000000000000000000000004
:0a02fa0000000000000000000000fa
:200304000000000000000000000000000000000000000000000000000000000000000000d9
:09032400000000000000000000d0
:20032d00000000000000000000000000000000000040000000000000000000000000000070
:0a034d0000000000000000000000a6
:20035700000000000000000000000000000000000000000000000000000000000000000086
:090377000000000000000000007d
:2003800000000000000000000000000000000000000000000000000000000000000000005d
:0a03a0000000000000000000000053
:2003aa00000000000000000000000000000000000000000000000000000000000000000033
:0903ca000000000000000000002a
:2003d30000000000000000000000000000000000000000000000000000000000000000000a
:0a03f3000000000000000000000000
:2003fd000002000000000000000000000000000000000000000000000000000000000000de
:09041d00000000000000000000d6
:200426000000000000000000000000000000000000000000000000000000000000000000b6
:0a04460000000000000000000000ac
:2004500000000000000000000000000000000000000000000000000000000000000000008c
:0904700000000000000000000083
:20047900000020000000000000000000000000000000000000000000000000000000000043
:0a0499000000000000000000000059
:2004a300000000000000000000000000000000000000000000000000000000000000000039
:0904c30000000000000000000030
:2004cc00000000000000000000000000000000000000000000000000000000000000000010
:0a04ec000000000000000000000006
:2004f6000000000000000000000000000000000000000000000000000000000000000000e6
:09051600000000000000000000dc
:20051f000000000000000000000000000000000000000000000000000000000000000000bc
:0a053f0000000000000000000000b2
:20054900000000000000000000000000000000000000000000000000000000000000000092
:0905690000000000000000000089
:20057200000000000000000000000000000000000000000000000000000000000000000069
:0a059200000000000000000000005f
:20059c004004000000000000000000000000000000000000000000000000000000000000fb
:0905bc0000000000000000000036
:2005c5000003600000000000000000000000000000000000000000000000000000000000b3
:0a05e500000000000000000000000c
:2005ef000000000000000000000000000000000000000000000000000000000000000000ec
:09060f00000000000000000000e2
:200618000800000000000000000000000000000000000000000000000000000000000000ba
:0a06380000000000000000000000b8
:20064200400000000000000000000000000000000000000000000000000000000000000058
:090662000000000000000000008f
:20066b000080000000000000000000000000000000000000000000000000000000000000ef
:0a068b000000000000000000000065
:20069500000200000000000000000000000000000000000000000000000000000000000043
:0906b5000000000000000000003c
:2006be0000000000000000000000000000000000000000000000000000000000000000001c
:0a06de000000000000000000000012
:2006e8000000000000000000000000000000000000000000000000000000000000000000f2
:09070800000000000000000000e8
:200711000000200000000000000000000000000000000000000000000000000000000000a8
:0a07310000000000000000000000be
:20073b00000000000000000000000000000000000000000000000800000000000000000096
:09075b0000000000000000000095
:20076400000000000000000000000000000000000000000000000040000000000000000035
:0a078400000000000000000000006b
:20078e0000000000000000000000000000000000000000000000000000000000000000004b
:0907ae0000000000000000000042
:2007b700000000000000000000000000000000000000000000000000000000000000000022
:0a07d7000000000000000000000018
:2007e1000000000000000000000000000000000000000000000000000000000000000000f8
:09080100000000000000000000ee
:20080a000000000000000000000000000000000000000000000000000000000000000000ce
:0a082a0000000000000000000000c4
:200834000000000000000000000000000000000000000000000000000000000000000000a4
:090854000000000000000000009b
:20085d0000000000000000000000000000000000004000000000000000000000000000003b
:0a087d000000000000000000000071
:20088700000000000000000000000000000000000000000000000000000000000000000051
:0908a70000000000000000000048
:2008b000000000000000000000000000000000000000000000000000000000000000000028
:0a08d000000000000000000000001e
:2008da000000000000000000000000000000000000000000000000000000000000000000fe
:0908fa00000000000000000000f5
:200903000000000000000000000000000000000000000000000000000000000000000000d4
:0a09230000000000000000000000ca
:20092d000002000000000000000000000000000000000000000000000000000000000000a8
:09094d00000000000000000000a1
:20095600000000000000000000000000000000000000000000000000000000000000000081
:0a0976000000000000000000000077
:20098000000000000000000000000000000000000000000000000000000000000000000057
:0909a0000000000000000000004e
:2009a90000002000000000000000000000000000000000000000000000000000000000000e
:0a09c9000000000000000000000024
:2009d300000000000000000000000000000000000000000000000000000000000000000004
:0909f300000000000000000000fb
:2009fc000000000000000000000000000000000000000000000000000000000000000000db
:0a0a1c0000000000000000000000d0
:200a26000000000000000000000000000000000000000000000000000000000000000000b0
:090a4600000000000000000000a7
:200a4f00000000000000000000000000000000000000000000000000000000000000000087
:0a0a6f00000000000000000000007d
:200a790000000000000000000000000000000000000000000000000000000000000000005d
:090a990000000000000000000054
:200aa200000000000000000000000000000000000000000000000000000000000000000034
:0a0ac200000000000000000000002a
:200acc004000000000000000000000000000000000000000000000000000000000000000ca
:090aec0000000000000000000001
:200af5000000200000000000000000000000000000000000000000000000000000000000c1
:0a0b150000000000000000000000d6
:200b1f00000000000000000000000000000000000000000000006000000000000000000056
:090b3f00000000000000000000ad
:200b4800080000000000000000000000000000000000000000000000000000000000000085
:0a0b68000000000000000000000083
:200b720044000000000000000000000000000000000000000000000000000000000000001f
:090b92000000000000000000005a
:200b9b000080000000000000000000000000000000000000000000000000000000000000ba
:0a0bbb000000000000000000000030
:200bc50000020000000000000000000000000000000000000000000000000000000000000e
:090be50000000000000000000007
:200bee000000000000000000000000000000000000000000000000000000000000000000e7
:0a0c0e0000000000000000000000dc
:200c180000700000000000000000000000000000000000000000000000000000000000004c
:090c3800000000000000000000b3
:200c4100000020000000000000000000000000000000000000000000000000000000000073
:0a0c61000000000000000000000089
:200c6b00000000000000000000000000000000000000000000000000000000000000000069
:090c8b0000000000000000000060
:200c9400000000000000000000000000000000000000000000000000000000000000000040
:0a0cb4000000000000000000000036
:200cbe00000000000000000000000000000000000000000000000000000000000000000016
:090cde000000000000000000000d
:200ce7000000000000000000000000000000000000000000000000000000000000000000ed
:0a0d070000000000000000000000e2
:200d11000000000000000000000000000000000000000000000000000000000000000000c2
:090d3100000000000000000000b9
:200d3a00000000000000000000000000000000000000000000000000000000000000000099
:0a0d5a00000000000000000000008f
:200d640000000000000000000000000000000000000000000000000000000000000000006f
:090d840000000000000000000066
:200d8d00000000000000000000000000000000000040000000000000000000000000000006
:0a0dad00000000000000000000003c
:200db70000000000000000000000000000000000000000000000000000000000000000001c
:090dd70000000000000000000013
:200de0000000000000000000000000000000000000000000000000000000000000000000f3
:0a0e000000000000000000000000e8
:200e0a000000000000000000000000000000000000000000000000000000000000000000c8
:090e2a00000000000000000000bf
:200e330000000000000000000000000000000000000000000000000000000000000000009f
:0a0e53000000000000000000000095
:200e5d00000200000000000000000000000000000000000000000000000000000000000073
:090e7d000000000000000000006c
:200e860000000000000000000000000000000000000000000000000000000000000000004c
:0a0ea6000000000000000000000042
:200eb000000000000000000000000000000000000000000000000000000000000000000022
:090ed00000000000000000000019
:200ed9000000200000000000000000000000000000000000000000000000000000000000d9
:0a0ef90000000000000000000000ef
:200f03000000000000000000000000000000000000000000000000000000000000000000ce
:090f2300000000000000000000c5
:200f2c000000000000000000000000000000000000000000000000000000000000000000a5
:0a0f4c00000000000000000000009b
:200f560000000000000000000000000000000000000000000000000000000000000000007b
:090f760000000000000000000072
:200f7f00000000000000000000000000000000000000000000000000000000000000000052
:0a0f9f000000000000000000000048
:200fa900000000000000000000000000000000000000000000000000000000000000000028
:090fc9000000000000000000001f
:200fd2000000000000000000000000000000000000000000000000000000000000000000ff
:0a0ff20000000000000000000000f5
:200ffc00400000000000000000000000000000000000000000000000000000000000000095
:09101c00000000000000000000cb
:2010250000002000000000000000000000000000000000000000000000000000000000008b
:0a10450000000000000000000000a1
:20104f00000000000000000000000000000000000000000000000000000000000000000081
:09106f0000000000000000000078
:20107800080000000000000000000000000000000000000000000000000000000000000050
:0a109800000000000000000000004e
:2010a2004c00000000000000000000000000000000000000000000000000000000000000e2
:0910c20000000000000000000025
:2010cb00008000000000000000000000000000000000000000000000000000000000000085
:0a10eb0000000000000000000000fb
:2010f5000002000000000000000000000000000000000000000008000000000000000000d1
:09111500000000000000000000d1
:20111e00000000000000000000000000000000000000000000000140000000000000000070
:0a113e0000000000000000000000a7
:20114800000000000000000000000000000000000000000000000000000000000000000087
:091168000000000000000000007e
:2011710000002000000000000000000000000000000000000000000000000000000000003e
:0a1191000000000000000000000054
:20119b00000000000000000000000000000000000000000000000000000000000000000034
:0911bb000000000000000000002b
:2011c40000000000000000000000000000000000000000000000000000000000000000000b
:0a11e4000000000000000000000001
:2011ee00007000000000000000000000000000000000000000000000000000000000000071
:09120e00000000000000000000d7
:201217000000000000000000000000000000000000000000000000000000000000000000b7
:0a12370000000000000000000000ad
:2012410000000000000000000000000000000000000000000000000000000000000000008d
:0912610000000000000000000084
:20126a00000000000000000000000000000000000000000000000000000000000000000064
:0a128a00000000000000000000005a
:2012940000000000000000000000000000000000000000000000000000000000000000003a
:0912b40000000000000000000031
:2012bd000000000000000000000000000000000000400000000000000000000000000000d1
:0a12dd000000000000000000000007
:2012e7000000000000000000000000000000000000000000000000000000000000000000e7
:09130700000000000000000000dd
:201310000000000000000000000000000000000000000000000000000000000000000000bd
:0a13300000000000000000000000b3
:20133a00000000000000000000000000000000000000000000000000000000000000000093
:09135a000000000000000000008a
:2013630000000000000000000000000000000000000000000000000000000000000000006a
:0a1383000000000000000000000060
:20138d0000020000000000000000000000000000000000000000000000000000000000003e
:0913ad0000000000000000000037
:2013b600000000000000000000000000000000000000000000000000000000000000000017
:0a13d600000000000000000000000d
:2013e0000000000000000000000000000000000000000000000000000000000000000000ed
:09140000000000000000000000e3
:201409000000200000000000000000000000000000000000000000000000000000000000a3
:0a14290000000000000000000000b9
:20143300000000000000000000000000000000000000000000000000000000000000000099
:0914530000000000000000000090
:20145c00000000000000000000000000000000000000000000000000000000000000000070
:0a147c000000000000000000000066
:20148600000000000000000000000000000000000000000000000000000000000000000046
:0914a6000000000000000000003d
:2014af0000000000000000000000000000000000000000000000000000000000000000001d
:0a14cf000000000000000000000013
:2014d9000000000000000000000000000000000000000000000000000000000000000000f3
:0914f900000000000000000000ea
:201502000000000000000000000000000000000000000000000000000000000000000000c9
:0a15220000000000000000000000bf
:20152c0040000000000000000000000000000000000000000000000000000000000000005f
:09154c0000000000000000000096
:20155500000020000000000000000000000000000000000000000000000000000000000056
:0a157500000000000000000000006c
:20157f00000400000000000000000000000000000000000000000000000000000000000048
:09159f0000000000000000000043
:2015a800080300000000000000000000000000000000000000000100000000000000000017
:0a15c8000000000000000000000019
:2015d200700000000000000000000000000000000000000000000000000000000000000089
:0915f200000000000000000000f0
:2015fb0002c00000000000000000000000000000000000000000000000000000000000000e
:0a161b0000000000000000000000c5
:20162500007200000000000000000000000000000000000000000000000000000000000033
:091645000000000000000000009c
:20164e0000000000000000000000000000000000000000000000000000000000000000007c
:0a166e000000000000000000000072
:20167800000000000000000000000000000000000000000000000000000000000000000052
:0916980000000000000000000049
:2016a100000020000000000000000000000000000000000000000000000000000000000009
:0a16c100000000000000000000001f
:2016cb0000000000000000000000000000000000000000000000800000000000000000007f
:0916eb00000000000000000000f6
:2016f4000000000000000000000000000000000000000000000000000000000000000000d6
:0a17140000000000000000000000cb
:20171e000000000000000000000000000000000000000000000000000000000000000000ab
:09173e00000000000000000000a2
:20174700000000000000000000000000000000000000000000000000000000000000000082
:0a1767000000000000000000000078
:20177100000000000000000000000000000000000000000000000000000000000000000058
:091791000000000000000000004f
:20179a0000000000000000000000000000000000000000000000000000000000000000002f
:0a17ba000000000000000000000025
:0217c400000023
:0217c60011010f
:0217c80001011d
:2017ca000000020000000000000000000000000000000000000000000000000000000000fd
:0917ea00000000000000000000f6
:2017f3000000000000000000000000000000000000000000000000000000000000000000d6
:0a18130000000000000000000000cb
:20181d00000001003400000000000000000000000000000000000000000000001000000066
:09183d00000000000000000000a2
:20184600000000000000000000000000000000000000000000000000000000000000000082
:0a1866000000000000000000000078
:201870000000020000000c00000000000000000000000000000000700000000000000000da
:091890000000000000000000004f
:201899000000000000000040000000000000000000000000000000000000000000000000ef
:0a18b9000000000000000000000025
:2018c30000000000000400000000000010000000000000400000000010000000000004405d
:0918e300000000000001000000fb
:2018ec000000000000000000000000000000000000000000000000000000000000000000dc
:0a190c0000000000000000000000d1
:2019160000000000000400000000000010000000000000400000000030000000000000002d
:09193600000000000001000000a7
:20193f00000000000000000000000000000000000000000000000000000000000000000088
:0a195f00000000000000000000007e
:2019690000000000000000000000000000000000000000000000000000300000000000002e
:0919890000000000000000000055
:201992000000000000000000000000000000000000000000000080000002000000000000b3
:0a19b200000000000000000000002b
:2019bc0000000000000000000000000000000000000000000000000000000000000000000b
:0919dc0000000000000000000002
:2019e5000000000000000000000000000000000000000000000040000000000000000000a2
:0a1a050000000000000000000000d7
:201a0f00000000000004000000000000000000000000000000000000000000000000004073
:091a2f00000000000000000000ae
:201a380000000000000000000000000000000000000000000000800000040000000000000a
:0a1a58000000000000000000000084
:201a6200000000000000000000000000000000000000000000000000000000000000000064
:091a82000000000000000000005b
:201a8b0000000000000000000000000000000000000000000000000000000000000000003b
:0a1aab000000000000000000000031
:201ab500000000000000000000000000000000000000000000000000000000000000000011
:091ad50000000000000000000008
:201ade000000000000000000000000000000000000000000000000000000000000000000e8
:0a1afe0000000000000000000000de
:201b08000000000000000000000000000000000000000000000000000000000000000000bd
:091b2800000000000000000000b4
:201b3100000000000000000000000000000000000000000000000000000000000000000094
:0a1b5100000000000000000000008a
:201b5b00000200000000000000000000000000000000000000000000000000000000000068
:091b7b0000000000000000000061
:201b8400000000000000000000000000000000000000000000000000000000000000000041
:0a1ba4000000000000000000000037
:201bae00000000000000000000000000000000000000000000000000000000000000000017
:091bce000000000000000000000e
:201bd7000000200000000000000000000000000000000000000000000000000000000000ce
:0a1bf70000000000000000000000e4
:201c01000000000000000000000000000000000000000000000000000000000000000000c3
:091c2100000000000000000000ba
:201c2a0000000000000000000000000000000000000000000000000000000000000000009a
:0a1c4a000000000000000000000090
:201c5400000000000000000000000000000000000000000000000000000000000000000070
:091c740000000000000000000067
:201c7d00000000000000000000000000000000000000000000000000000000000000000047
:0a1c9d00000000000000000000003d
:201ca70000000000000000000000000000000000000000000000000000000000000000001d
:091cc70000000000000000000014
:201cd0000000000000000000000000000000000000000000000000000000000000000000f4
:0a1cf00000000000000000000000ea
:201cfa000000000000000000000000000000000000000000000000000000000000000000ca
:091d1a00000000000000000000c0
:201d23000000000000000000000000000000000000000000000000000000000000000000a0
:0a1d43000000000000000000000096
:201d4d00000000000000000000000000000000000000000000000000000000000000000076
:091d6d000000000000000000006d
:201d760000000000000000000000000000000000000000000000000000000000000000004d
:0a1d96000000000000000000000043
:201da000000000000000000000000000000000000000000000000000000000000000000023
:091dc0000000000000000000001a
:201dc9000000000000000000000000000000000000000000000000000000000000000000fa
:0a1de90000000000000000000000f0
:201df3000002000000000000000000000000000000000000000000000000000000000000ce
:091e1300000000000000000000c6
:201e1c000000000000000000000000000000000000000000000000000000000000000000a6
:0a1e3c00000000000000000000009c
:201e460000000000000000000000000000000000000000000000000000000000000000007c
:091e660000000000000000000073
:201e6f00000020000000000000000000000000000000000000000000000000000000000033
:0a1e8f000000000000000000000049
:201e9900000000000000000000000000000000000000000000000000000000000000000029
:091eb90000000000000000000020
:201ec200000000000000000000000000000000000000000000000000000000000000000000
:0a1ee20000000000000000000000f6
:201eec000000000000000000000000000000000000000000000000000000000000000000d6
:091f0c00000000000000000000cc
:201f15000000000000000000000000000000000000000000000000000000000000000000ac
:0a1f350000000000000000000000a2
:201f3f0000000000000000000000000000000000040000000000000000000000000000007e
:091f5f0000000000000000000079
:201f6800000000000000000000000000000000000000000000000000000000000000000059
:0a1f8800000000000000000000004f
:201f920000000000000000000000000000000000000000000000000000000000000000002f
:091fb20000000000000000000026
:201fbb00000000000000000000000000000000000000000000000000000000000000000006
:0a1fdb0000000000000000000000fc
:201fe5000000000000000000000000000000000000000000000000000000000000000000dc
:09200500000000000000000000d2
:20200e0000068000000000000000000000000000000000000000000000000000000000002c
:0a202e0000000000000000000000a8
:20203800000000000000000000000000000000000000000000040000000000000000000084
:092058000000000000000000007f
:2020610000000000000000000000000000000000000000000000a0000000000000000000bf
:0a2081000000000000000000000055
:20208b00000200000000000000000000000000000000000000000000000000000000000033
:0920ab000000000000000000002c
:2020b40000000000000000000000000000000000000000000000000000000000000000000c
:0a20d4000000000000000000000002
:2020de000000000000000000000000000000000000000000000000000000000000000000e2
:0920fe00000000000000000000d9
:20210700000020000000000000000000000000000000000000000000000000000000000098
:0a21270000000000000000000000ae
:20213100080000000000000000000000000000000000000000000000000000000000000086
:0921510000000000000000000085
:20215a0004c0000000000000000000000000000000000000000000000000000000000000a1
:0a217a00000000000000000000005b
:202184008000000000000000000000000000000000000000000000000000000000000000bb
:0921a40000000000000000000032
:2021ad00000000000000000000000000000000000000000000000000000000000000000012
:0a21cd000000000000000000000008
:2021d7000002000000000000000000000000000000000000000000000000000000000000e6
:0921f700000000000000000000df
:202200000400000000000000000000000000000000000000000000000000000000000000ba
:0a22200000000000000000000000b4
:20222a00000000000000000000000000000000000000000000000000000000000000000094
:09224a000000000000000000008b
:2022530000000000000000000000000000000000000000000000000000000000000000006b
:0a2273000000000000000000000061
:20227d00000000000000000000000000000000000000000000000000000000000000000041
:09229d0000000000000000000038
:2022a600000000000000000000000000000000000000000000000000000000000000000018
:0a22c600000000000000000000000e
:2022d0000000000000000000000000000000000000000000000000000000000000000000ee
:0922f000000000000000000000e5
:2022f900000000000000000000000000000000000000000000000a000000000000000000bb
:0a23190000000000000000000000ba
:20232300000200000000000000000000000000000000000000000000000000000000000098
:0923430000000000000000000091
:20234c0000030000000000000000000000000000000000000000000000000000000000006e
:0a236c000000000000000000000067
:20237600000000000000000000000000000000000000000000000000000000000000000047
:092396000000000000000000003e
:20239f000000200000000000000000000000000000000000000000000000000000000000fe
:0a23bf000000000000000000000014
:2023c9000800000000000000000000000000000000000000000000000000000000000000ec
:0923e900000000000000000000eb
:2023f200044000000000000000000000000000000000000000000000000000000010000077
:0a24120000000000000000000000c0
:20241c00800000000000000000000000000000000000000000000000000000000000000020
:09243c0000000000000000000097
:20244500006000000000000000000000000000000000000000000000000000000000000017
:0a246500000000000000000000006d
:20246f00000200000000000000000000000000000400000000000000000000000000000047
:09248f0000000000000000000044
:20249800040000000000000000000000000000000000000000000000000000000000000020
:0a24b800000000000000000000001a
:2024c2000000000000000000000000000000000000000000000000000000000000000000fa
:0924e200000000000000000000f1
:2024eb000000000000000000000000000000000000000000000000000000000000000000d1
:0a250b0000000000000000000000c6
:202515000000000000000000000000000000000000000000000000000000000000000000a6
:092535000000000000000000009d
:20253e0000000000000000000000000000000000000000000000000000000000000000007d
:0a255e000000000000000000000073
:20256800000000000000000000000000000000000000000000000000000000000000000053
:092588000000000000000000004a
:20259100000700000000000000000000000000000000000000000000000000000000000023
:0a25b1000000000000000000000020
:2025bb000002000000000000000000000000000000000000000000000000000000000000fe
:0925db00000000000000000000f7
:2025e4000000000000000000000000000000000000000000000000000000000000000000d7
:0a26040000000000000000000000cc
:20260e000000000000000000000000000000000000000000000200000000000000000000aa
:09262e00000000000000000000a3
:20263700000020000000000000000000000000000000000000000000000000000000000063
:0a2657000000000000000000000079
:202661000c000000000000000000000000000000000000000000000000000000000000004d
:0926810000000000000000000050
:20268a000440000000000000000000000000000000000000000000000000000000000000ec
:0a26aa000000000000000000000026
:2026b400800000000000000000000000000000000000000000000000000000000000000086
:0926d400000000000000000000fd
:2026dd000000000000000000000000000000000000000000000008000000000000000000d5
:0a26fd0000000000000000000000d3
:20270700180200000000000000000000000000000000000000000000000000000000000098
:09272700000000000000000000a9
:20273000040000000000000000000000000000000000000000000000000000000000000085
:0a275000000000000000000000007f
:20275a0000000000000000000000000000000000000000000000000000000000000000005f
:09277a0000000000000000000056
:20278300000000000000000000000000000000000000000000000000000000000000000036
:0a27a300000000000000000000002c
:2027ad0000000000000000000000000000000000000000000000000000000000000000000c
:0927cd0000000000000000000003
:2027d6000000000000000000000000000000000000000000000000000000000000000000e3
:0a27f60000000000000000000000d9
:202800000000000000000000000000000000000000000000000000000000000000000000b8
:09282000000000000000000000af
:2028290000000000000000000000000000000000000000000000000000000000000000008f
:0a2849000000000000000000000085
:20285300000200000000000000000000000000000000000000000000000000000000000063
:092873000000000000000000005c
:20287c0000000000000000000000000000000000000000000000000000000000000000003c
:0a289c000000000000000000000032
:2028a600000000000000000000000000000000000000000000000000000000000000000012
:0928c60000000000000000000009
:2028cf000000200000000000000000000000000000000000000000000000000000000000c9
:0a28ef0000000000000000000000df
:2028f9000000000000000000000000000000000000000000000000000000000000000000bf
:09291900000000000000000000b5
:20292200000000000000000000000000000000000000000000000000000000000000000095
:0a294200000000000000000000008b
:20294c0000000000000000000000000000000000000000000000000000000000000000006b
:09296c0000000000000000000062
:20297500000000000000000000000000000000000000000000000000000000000000000042
:0a2995000000000000000000000038
:20299f00000000000000000000000000000000000400000000000000000000000000000014
:0929bf000000000000000000000f
:2029c8000000000000000000000000000000000000000000000000000000000000000000ef
:0a29e80000000000000000000000e5
:2029f2000000000000000000000000000000000000000000000000000000000000000000c5
:092a1200000000000000000000bb
:202a1b0000000000000000000000000000000000000000000000000000000000000000009b
:0a2a3b000000000000000000000091
:202a4500000000000000000000000000000000000000000000000000000000000000000071
:092a650000000000000000000068
:202a6e00000000000000000000000000000000000000000000000100000000000000000047
:0a2a8e00000000000000000000003e
:202a980000000000000000000000000000000000000000000000000000000000000000001e
:092ab80000000000000000000015
:202ac1000000000000000000000000000000000000000000000000000000000000000000f5
:0a2ae10000000000000000000000eb
:202aeb000002000000000000000000000000000000000000000000000000000000000000c9
:092b0b00000000000000000000c1
:202b14000000000000000000000000000000000000000000000000000000000000000000a1
:0a2b34000000000000000000000097
:202b3e00000000000000000000000000000000000000000000000000000000000000000077
:092b5e000000000000000000006e
:202b670000002000000000000000000000000000000000000000000000000000000000002e
:0a2b87000000000000000000000044
:202b9100000000000000000000000000000000000000000000000000000000000000000024
:092bb1000000000000000000001b
:202bba000000000000000000000000000000000000000000000000000000000000000000fb
:0a2bda0000000000000000000000f1
:202be4000000000000000000000000000000000000000000000000000000000000000000d1
:092c0400000000000000000000c7
:202c0d000000000000000000000000000000000000000000000000000000000000000000a7
:0a2c2d00000000000000000000009d
:202c370000000000000000000000000000000000000000000000000000000000000000007d
:092c570000000000000000000074
:202c6000000000000000000000000000000000000000000000000000000000000000000054
:0a2c8000000000000000000000004a
:202c8a0000000000000000000000000000000000000000000000000000000000000000002a
:092caa0000000000000000000021
:202cb3000400000000000000000000000000000000000000000000000000000000000000fd
:0a2cd30000000000000000000000f7
:202cdd0080280000000000000000000000000000000000000000000000000000000000002f
:092cfd00000000000000000000ce
:202d060000004000000000000000000000000000000000000000000000000000000000006d
:0a2d260000000000000000000000a3
:202d300008000000000000000000000000000000000000000000000000000000000000007b
:092d50000000000000000000007a
:202d590004c000000000000000000000000000000000000000000000000000000000000096
:0a2d79000000000000000000000050
:202d830000020000000000000000000000000000000000000000000000000000000000002e
:092da30000000000000000000027
:202dac00000000000000000000000000000000000000000000000000000000000000000007
:0a2dcc0000000000000000000000fd
:202dd6000000000000000000000000000000000000000000000000000000000000000000dd
:092df600000000000000000000d4
:202dff000000100000000000000000000000000000000000000000000000000000000000a4
:0a2e1f0000000000000000000000a9
:202e2900000000000000000000000000000000000000000000000000000000000000000089
:092e490000000000000000000080
:202e5200000000000000000000000000000000000000000000000000000000000000000060
:0a2e72000000000000000000000056
:202e7c008000000000000000000000000000000000000000000000000000000000000000b6
:092e9c000000000000000000002d
:202ea50000000000000000000000000000000000000000000000000000000000000000000d
:0a2ec5000000000000000000000003
:202ecf000002000000000000000000000000000004000000000000000000000000000000dd
:092eef00000000000000000000da
:202ef80020000000000000000000000000000000000000000000000000000000000000009a
:0a2f180000000000000000000000af
:022f22000000ad
:022f2400110298
:022f26000101a7
:202f2800000000000000000000000000000000000000000000000000000000000000000089
:092f480000000000000000000080
:202f5100000000000000000000000000000000000000000000000000000000000000000060
:0a2f71000000000000000000000056
:202f7b00000000000000000000000000000000000000000000000000000000000000000036
:092f9b000000000000000000002d
:202fa40000000000000000000000000000000000000000000000000000000000000000000d
:0a2fc4000000000000000000000003
:202fce000000000000000000000000000000000000000000000000000000000000000000e3
:092fee00000000000000000000da
:202ff7000000000000000000000000000000000000000000000000000000000000000000ba
:0a30170000000000000000000000af
:203021000000000000080000000000002000000000080000000000002000000000000080bf
:0930410000000000000200000084
:20304a00000000000000000000000000000000000000000000000000000000000000000066
:0a306a00000000000000000000005c
:2030740000000000000800000000000020000000000800000000000020000000000000806c
:0930940000000000000200000031
:20309d00000000000000000000000000000000000000000000000000000000000000000013
:0a30bd000000000000000000000009
:2030c7000000000000000000000000000000000000000000000000000000000000000000e9
:0930e700000000000000000000e0
:2030f0000000000000000000000000000000000000000000000000000000000000000000c0
:0a31100000000000000000000000b5
:20311a00000000000000000000000000000000000000000000000000000000000000000095
:09313a000000000000000000008c
:2031430000000000000000000000000000000000000000000000000000000000000000006c
:0a3163000000000000000000000062
:20316d00000000000000000000000000000000000000000000000000000000000000000042
:09318d0000000000000000000039
:20319600000000000000000000000000000000000000000000000000000000000000000019
:0a31b600000000000000000000000f
:2031c0000000000000000000000000000000000000000000000000000000000000000000ef
:0931e000000000000000000000e6
:2031e9000000000000000000000000000000000000000000080000000000000000000000be
:0a32090000000000000000000000bb
:2032130000000000000000000000000000000000000000000000000000000000000000009b
:0932330000000000000000000092
:20323c00000000000000000000000000000000000000000000000000000000000000000072
:0a325c000000000000000000000068
:20326600000000000000000000000000000000000000000000000000000000000000000048
:093286000000000000000000003f
:20328f0000000000000000000000000000000000000000000000000000000000000000001f
:0a32af000000000000000000000015
:2032b9000002000000000000000000000000000000000000000000000000000000000000f3
:0932d900000000000000000000ec
:2032e2000000000000000000000000000000000000000000000000000000000000000000cc
:0a33020000000000000000000000c1
:20330c000000000000000000000000000000000000000000000000000000000000000000a1
:09332c0000000000000000000098
:20333500000020000000000000000000000000000000000000000000000000000000000058
:0a335500000000000000000000006e
:20335f0000000000000000000000000000000000000000000000000000000000000000004e
:09337f0000000000000000000045
:20338800000000000000000000000000000000000000000000000000000000000000000025
:0a33a800000000000000000000001b
:2033b2000000000000000000000000000000000000000000000000000000000000000000fb
:0933d200000000000000000000f2
:2033db000000000000000000000000000000000000000000000000000000000000000000d2
:0a33fb0000000000000000000000c8
:203405000000000000000000000000000000000000000000000000000000000000000000a7
:093425000000000000000000009e
:20342e0000000000000000000000000000000000000000000000000000000000000000007e
:0a344e000000000000000000000074
:20345800000000000000000000000000000000000000000000000000000000000000000054
:093478000000000000000000004b
:2034810000000000000000000000000000000000000000000000000000000000000000002b
:0a34a1000000000000000000000021
:2034ab00000000000000000000000000000000000000000000000000000000000000000001
:0934cb00000000000000000000f8
:2034d4000000000000000000000000000000000000000000000000000000000000000000d8
:0a34f40000000000000000000000ce
:2034fe000000000000000000000000000000000000000000000000000000000000000000ae
:09351e00000000000000000000a4
:20352700000000000000000000000000000000000000000000000000000000000000000084
:0a354700000000000000000000007a
:20355100000200000000000000000000000000000000000000000000000000000000000058
:0935710001000000000000000050
:20357a00000000000000000000000000000000000000000000000000000000000000000031
:0a359a0000280000000000000000ff
:2035a400000000000000000000000000000000000000000000000000000000000000000007
:0935c400000000000000000000fe
:2035cd000000200000000000000000000000000000000000000000000000000000000000be
:0a35ed0000000000000000000000d4
:2035f7000000000000000000000000000000000000000000000000000000000000000000b4
:09361700000000000000000000aa
:2036200000000000000000000000000000000000000000000000000000000000000000008a
:0a3640000000000000000000000080
:20364a00000000000000000000000000000000000000000000000000000000000000000060
:09366a0000000000000000000057
:20367300000000000000000000000000000000000000000000000000000000000000000037
:0a369300000000000000000000002d
:20369d0000000000000000000000000000000000000000000000000000000000000000000d
:0936bd0000000000000000000004
:2036c6000000000000000000000000000000000000000000000000000000000000000000e4
:0a36e60000000000000000000000da
:2036f0000000000000000000000000000000000000000000000000000000000000000000ba
:09371000000000000000000000b0
:20371900000000000000000000000000000000000000000008000000000000000000000088
:0a3739000000000000000000000086
:20374300000000000000000000000000000000000000000000000000000000000000000066
:093763000000000000000000005d
:20376c0000000000000000000000000000000000000000000000000000000000000000003d
:0a378c000000000000000000000033
:20379600000000000000000000000000000000000000000000000000000000000000000013
:0937b6000000000000000000000a
:2037bf000000000000000000000000000000000000000000000000000000000000000000ea
:0a37df0000000000000000000000e0
:2037e9000002000000000000000000000000000000000000000000000000000000000000be
:09380900000000000000000000b6
:20381200000000000000000000000000000000000000000000000000000000000000000096
:0a383200000000000000000000008c
:20383c0000000000000000000000000000000000000000000000000000000000000000006c
:09385c0000000000000000000063
:20386500000020000000000000000000000000000000000000000000000000000000000023
:0a3885000000000000000000000039
:20388f00000000000000000000000000000000000000000000000000000000000000000019
:0938af0000000000000000000010
:2038b8000000000000000000000000000000000000000000000000000000000000000000f0
:0a38d80000000000000000000000e6
:2038e2000000000000000000000000000000000000000000000000000000000000000000c6
:09390200000000000000000000bc
:20390b0000000000000000000000000000000000000000000000000000000000000000009c
:0a392b000000000000000000000092
:20393500000000000000000000000000000000000000000000000000000000000000000072
:0939550000000000000000000069
:20395e00000000000000000000000000000000000000000000000000000000000000000049
:0a397e00000000000000000000003f
:2039880000000000000000000000000000000000000000000000000000000000000000001f
:0939a80000000000000000000016
:2039b1000000000000000000000000000000000000000000000000000000000000000000f6
:0a39d10000000000000000000000ec
:2039db000000000000000000000000000000000000000000000000000000000000000000cc
:0939fb00000000000000000000c3
:203a04000000000000000000000000000000000000000000000000000000000000000000a2
:0a3a24000000000000000000000098
:203a2e00000000000000000000000000000000000000000000000000000000000000000078
:093a4e000000000000000000006f
:203a570000000000000000000000000000000000000000000000000000000000000000004f
:0a3a77000000000000000000000045
:203a8100000200000000000000000000000000000000000000000000000000000000000023
:093aa1000000000000000000001c
:203aaa000000000000000000000000000000000000000000000000000000000000000000fc
:0a3aca0000000000000000000000f2
:203ad4000000000000000000000000000000000000000000000000000000000000000000d2
:093af400000000000000000000c9
:203afd00000020000000000000000000000000000000000000000000000000000000000089
:0a3b1d00000000000000000000009e
:203b270000000000000000000000000000000000000000000000000000000000000000007e
:093b470000000000000000000075
:203b5000000000000000000000000000000000000000000000000000000000000000000055
:0a3b7000000000000000000000004b
:203b7a0000000000000000000000000000000000000000000000000000000000000000002b
:093b9a0000000000000000000022
:203ba300000000000000000000000000000000000000000000000000000000000000000002
:0a3bc30000000000000000000000f8
:203bcd000000000000000000000000000000000000000000000000000000000000000000d8
:093bed000030000000000000009f
:203bf6000000000000000000000000000000000000000000000000000000000000000000af
:0a3c160000000000000000000000a4
:203c2000000000000000000000000000000000000000000000000000000000000000000084
:093c40000000000000000000007b
:203c4900000000000000000000000000000000000000000008000000000000000000000053
:0a3c69000000000000000000000051
:203c7300000000000000000000000000000000000000000000000000000000000000000031
:093c930000000000000000000028
:203c9c00000000000000000000000000000000000000000000000000000000000000000008
:0a3cbc0000000000000000000000fe
:203cc6000000000000000000000000000000000000000000000000000000000000000000de
:093ce600000000000000000000d5
:203cef000000000000000000000000000000000000000000000000000000000000000000b5
:0a3d0f0000000000000000000000aa
:203d1900000200000000000000000000000000000000000000000000000000000000000088
:093d390000000000000000000081
:203d4200000000000000000000000000000000000000000000000000000000000000000061
:0a3d62000000000000000000000057
:203d6c00000000000000000000000000000000000000000000000000000000000000000037
:093d8c000000000000000000002e
:203d95000000200000000000000000000000000000000000000000000000000100000000ed
:0a3db5000000000000000000000004
:203dbf000000000000000000000000000000000000000000000000000000000000000000e4
:093ddf00000000000000000000db
:203de8000000000000000000000000000000000000000000000000000000000000000000bb
:0a3e080008000000000000000000a8
:203e1200000000000000000000000000000000000000000000000000000000000000000090
:093e320000000000000000000087
:203e3b00000000000000000000000000000000000000000000000000000000000000000067
:0a3e5b00000000000000000000005d
:203e650000000000000000000000000000000000000000000000000000000000000000003d
:093e850000000000000000000034
:203e8e00000000000000000000000000000000000000000000000000000000000000000014
:0a3eae00000000000000000000000a
:203eb8000000000000000000000000000000000000000000000000000000000000000000ea
:093ed800000000000000000000e1
:203ee1000000000000000000000000000000000000000000000000000000000000000000c1
:0a3f010000000000000000000000b6
:203f0b00000000000000000000000000000000000000000000000000000000000000000096
:093f2b000000000000000000008d
:203f340000000000000000000000000000000000000000000000000000000000000000006d
:0a3f54000000000000000000000063
:203f5e00000000000000000000000000000000000000000000000000000000000000000043
:093f7e000000000000000000003a
:203f870000000000000000000000000000000000000000000000000000000000000000001a
:0a3fa7000000000000000000000010
:203fb1000002000000000000000000000000000000000000000000000000000000000000ee
:093fd100000000000000000000e7
:203fda000000000000000000000000000000000000000000000000000000000000000000c7
:0a3ffa0000000000000000000000bd
:2040040000000000000000000000000000000000000000000000000000000000000000009c
:0940240000000000000000000093
:20402d00000020000000000000000000000000000000000000000000000000000000000053
:0a404d000000000000000000000069
:20405700000000000000000000000000000000000000000000000000000000000000000049
:0940770000000000000000000040
:20408000000000000000000000000000000000000000000000000000000000000000000020
:0a40a0000000000000000000000016
:2040aa000000000000000000000000000000000000000000000000000000000000000000f6
:0940ca00000000000000000000ed
:2040d3000000000000000000000000000000000000000000000000000000000000000000cd
:0a40f30000000000000000000000c3
:2040fd000000000000000000000000000000000000000000000000000000000000000000a3
:09411d0000000000000000000099
:20412600000000000000000000000000000000000000000000000000000000000000000079
:0a414600000000000000000000006f
:2041500000000000000000000000000000000000000000000000000000000000000000004f
:0941700000000000000000000046
:2041790000000000000000000000000000000000000000000800000000000000000000001e
:0a419900000000000000000000001c
:2041a3000000000000000000000000000000000000000000000000000000000000000000fc
:0941c300000000000000000000f3
:2041cc000000000000000000000000000000000000000000000000000000000000000000d3
:0a41ec0000000000000000000000c9
:2041f6000000000000000000000000000000000000000000000000000000000000000000a9
:094216000000000000000000009f
:20421f0000000000000000000000000000000000000000000000000000000000000000007f
:0a423f000000000000000000000075
:20424900000200000000000000000000000000000000000000000000000000000000000053
:094269000000000000000000004c
:2042720000000000000000000000000000000000000000000000000000000000000000002c
:0a4292000000000000000000000022
:20429c00000000000000000000000000000000000000000000000000000000000000000002
:0942bc00000000000000000000f9
:2042c5000000200000000000000000000000000000000000000000000000000000000000b9
:0a42e50000000000000000000000cf
:2042ef000000000000000000000000000000000000000000000000000000000000000000af
:09430f0080000000000000000025
:20431800000000000000000000000000000000000000000000000000000000000000000085
:0a433800000000000000000000007b
:2043420000000000000000000000000000000000000000000000000000000000000000005b
:0943620000000000000000000052
:20436b00000000000000000000000000000000000000000000000000000000000000000032
:0a438b000000000000000000000028
:20439500000000000000000000000000000000000000000000000000000000000000000008
:0943b500000000000000000000ff
:2043be000000000000000000000000000000000000000000000000000000000000000000df
:0a43de0000000000000000000000d5
:2043e8000000000000000000000000000000000000000000000000000000100000000000a5
:094408000020000000000000008b
:2044110000000000000000000000000000000000000000000000000000000000000000008b
:0a4431000000000000000000000081
:20443b000000000057bc000000000000000000000000000000000000000100180000000035
:09445b0001000000000000000057
:204464000000000000078000000000000000000000000000000000000000e00000000000d1
:0a4484000028000000000000000006
:20448e000000040e7770078000000000000000000000000020000000000e00000000000060
:0944ae0000000000000000000005
:2044b700000000005f0e8000000000000000000000000000000000000001000000000000f7
:0a44d70000000000000000000000db
:2044e1000002000000000000000000000000000000000000000000000000000000000000b9
:09450100000100000000000000b0
:20450a00000000000000000000000000000000000000000000000000000000000000000091
:0a452a000000200000000000000067
:20453400000000000000000000000000000000000000000200000000000010000000000055
:094554000000000000000000005e
:20455d0000002000000000000000000000000000000000000000000000000000000000001e
:0a457d000000000000000000000034
:20458700000000000001c000000000000000000000000000000000000980000000000000ca
:0945a7000070000000000000009b
:2045b00000000000000002000000000000000000000000000000000000b000000000000039
:0a45d00000000000000000000000e1
:2045da00000000000003c000000000000000000000000000000000000000000000000000fe
:0945fa00000000000000000000b8
:204603000000000000003e0005000000000000000000000000000000000000000000000054
:0a462300000000000000000000008d
:20462d0000000000000007400000000000000000000000000000b1b5d000000800000000e8
:09464d0000000000000000000064
:2046560000000000000000780000000000000000000000000000130ede00e000800000006d
:0a467600000000000000000000003a
:02468000000038
:02468200110322
:02468400010132
:20468600000000000000000000000000000000000000000000000000000000000000000014
:0946a6000000000000000000000b
:2046af000000000000000000000000000000000000000000000000000000000000000000eb
:0a46cf0000000000000000000000e1
:2046d9000000000000000000000000000000000000000000000000000000000000000000c1
:0946f900000000000000000000b8
:20470200000000000000000000000000000000000000000000000000000000000000000097
:0a472200000000000000000000008d
:20472c0000000000000000000000000000000000000000000000000000000000000000006d
:09474c0000000000000000000064
:20475500000000000000000000000000000000000000000000000000000000000000000044
:0a477500000000000000000000003a
:20477f000000000000080000000000002000000000080000000000002000000000000000ca
:09479f000000000000020000000f
:2047a8000000000000000000000000000000000000000000000000000000000000000000f1
:0a47c80000000000000000000000e7
:2047d20000000000000800000000000020000000000800000000000020000000000000c0b7
:0947f200000000000002000000bc
:2047fb0000000000000000000000000000000000000000000000000000000000000000009e
:0a481b000000000000000000000093
:20482500000000000000000000000000000000000000000000000000000000000000000073
:094845000000000000000000006a
:20484e0000000000000000000000000000000000000000000000000000000000000000004a
:0a486e000000000000000000000040
:20487800000000000000000000000000000000000000000000000000000000000000002000
:0948980000000000000000000017
:2048a1000000000000000000000000000000000000000000000000000000000000000000f7
:0a48c100800020000000000000004d
:2048cb00000000000000000000000000000000000000000000000000000000000000004885
:0948eb00000000000000000000c4
:2048f40000000000000000000000000000000000010000000000000000000000000004009f
:0a4914000000000000000000000099
:20491e00000000000000000000000000000000000000000000000000000000000000000079
:09493e0000000000000000000070
:20494700000000000000000000000000000000000000000000000000000000000000000050
:0a4967000000000000000000000046
:20497100000000000000000000000000000000000000000000000000000000000000000026
:094991000000000000000000001d
:20499a000000000000000000000000000000000000000000000000000000000000000000fd
:0a49ba0000000000000000000000f3
:2049c4000000000000000000000000000000000000000000000000000000000000000000d3
:0949e400000000000000000000ca
:2049ed000000000000000000000000000000000000000000000000000000000000000000aa
:0a4a0d00000000000000000000009f
:204a170000020000000000000000000000000000000000000000000000000000000000007d
:094a370000000000000000000076
:204a4000000000000000000000000000000000000000000000000000000000000000000056
:0a4a6000000000000000000000004c
:204a6a0000000000000000000000000000000000000000000000000000000000000000002c
:094a8a0000000000000000000023
:204a93000000200000000000000000000000000000000000000000000000000000000000e3
:0a4ab30000000000000000000000f9
:204abd000000000000000000000000000000000000000000000000000000000000000000d9
:094add00000000000000000000d0
:204ae6000000000000000000000000000000000000000000000000000000000000000000b0
:0a4b060000000000000000000000a5
:204b1000000000000000000000000000000000000000000000000000000000000000000085
:094b30000000000000000000007c
:204b390000000000000000000000000000000000000000000000000000000000000000005c
:0a4b59000000000000000000000052
:204b6300000000000000000000000000000000000000000000000000000000000000000032
:094b8300006000000000000000c9
:204b8c00000000000000000000000000000000000000000000000000000000000000000009
:0a4bac0000000000000000000000ff
:204bb6000000000000000000000000000000000000000000000000000000000000000000df
:094bd600000000000000000000d6
:204bdf000000000000000000000000000000000000000000000000000000000000000000b6
:0a4bff0000000000000000000000ac
:204c090000000000000000000000000000000000000000000000000000000000000000008b
:094c290000000000000000000082
:204c3200000000000000000000000000000000000000000000000000000000000000000062
:0a4c52000000000000000000000058
:204c5c00000000000000000000000000000000000000000000000000000000000000000038
:094c7c000000000000000000002f
:204c850000000000000000000000000000000000000000000000000000000000000000000f
:0a4ca5000000000000000000000005
:204caf000002000000000000000000000000000000000000000000000000000000000000e3
:094ccf00000000000000000000dc
:204cd8000000000000000000000000000000000000000000000000000000000000000000bc
:0a4cf8000020000000000000000092
:204d0200000000000000000000000000000000000000000000000000000000000000000091
:094d220000000000000000000088
:204d2b00000020000000000000000000000000000000000000000000000000000000000048
:0a4d4b00000000000000000000005e
:204d550000000000000000000000000000000000000000000000000000000000000000003e
:094d750000000000000000000035
:204d7e00000000000000000000000000000000000000000000000000000000000000000015
:0a4d9e00000000000000000000000b
:204da8000000000000000000000000000000000000000000000000000000000000000000eb
:094dc800002000000000000000c2
:204dd1000000000000000000000000000000000000000000000000000000000000000000c2
:0a4df10000000000000000000000b8
:204dfb00000000000000000000000000000000000000000080000000000000000000000018
:094e1b000000000000000000008e
:204e240000000000000000000000000000000000000000000000000000000000000000006e
:0a4e44000000000000000000000064
:204e4e00000000000000000000000000000000000000000000000000000000000000000044
:094e6e000000000000000000003b
:204e770000000000000000000000000000000000000000000000000000000000000000001b
:0a4e97000000000000000000000011
:204ea1000000000000000000000000000000000000000000000000000000000000000000f1
:094ec100000000000000000000e8
:204eca000000000000000000000000000000000000000000000000000000000000000000c8
:0a4eea0000000000000000000000be
:204ef40000000000000000000000000000000000000000000000000000000000000000009e
:094f140000000000000000000094
:204f1d00000000000000000000000000000000000000000000000000000000000000000074
:0a4f3d00000000000000000000006a
:204f4700000200000000000000000000000000000000000000000000000000000000000048
:094f670000000000000000000041
:204f7000000000000000000000000000000000000000000000000000000000000000000021
:0a4f90000000000000000000000017
:204f9a000000000000000000000000000000000000000000000000000000000000000000f7
:094fba00000000000000000000ee
:204fc3000000200000000000000000000000000000000000000000000000000000000000ae
:0a4fe30000000000000000000000c4
:204fed000000000000000000000000000000000000000000000000000000000000000000a4
:09500d000000000000000000009a
:2050160000000000000000000000000000000000000000000000000000000000000000007a
:0a5036000000000000000000000070
:20504000000000000000000000000000000000000000000000000000000000000000000050
:0950600000010000000000000046
:20506900000000000000000000000000000000000000000000000000000000000000000027
:0a508900000000000000000000001d
:205093000000000000000000000000000000000000000000000000000000000000000000fd
:0950b300000000000000000000f4
:2050bc000000000000000000000000000000000000000000000000000000000000000000d4
:0a50dc0000000000000000000000ca
:2050e6000000000000000000000000000000000000000000000000000000000d010f080085
:0951060000802000000000f00010
:20510f00800000000000000000000000000000000000000000000000000000008020f1006f
:0a512f000000030000000000000c67
:20513900000000000000000000000000000000000000000000000000000000000000000056
:095159000000000000000000004d
:20516200000000000000000000000000000000000000000005000000000000000000000028
:0a5182000000000000000000000023
:20518c0000000000000000000000001780000000000000000000000000000000000000006c
:0951ac00340080000000009000b6
:2051b5000000000000000000000000427b000000000000000000000000000000000000001d
:0a51d5000040000000000000000090
:2051df0000020000000000000000000000000000000000000000000000000010000000009e
:0951ff0000004000000000000166
:20520800000000000000000000000000000000000000000000000000000000000000000086
:0a522800000000000000000000007c
:205232000000000000000000000000000089000000000000000030a790000000000000006c
:0952520000000000000000000053
:20525b00000020000000000000000000001810000000000000001b1d6951e0000000000019
:0a527b000000000000000000000029
:20528500000000000001428000000000000000000000000000000000000000000000000046
:0952a500000000043c00000000c0
:2052ae000000000000001428000000000000000000000000000000000000000000000000a4
:0a52ce000000000083de0000000075
:2052d8000000000005ac0000000000000910000000000000000000000000000000000000ec
:0952f800000000000000000000ad
:205301000000000010528000000000000081800000000000000000000058000180000000d0
:0a5321000000060000000000001864
:20532b000000000000000000008c03c000000000000000008000000005000000000000147a
:09534b0000000000000000000059
:2053540000000000000000000000003c4000000000000000000000000018000000000002a3
:0a53740000003000000000000000ff
:20537e000000000aa040020001000004000000000000000000000281fd80000080c1be54cb
:09539e0000003002a8100080009c
:2053a70040000002aa16800400200402000000000000000000000000dbd00000002c7febf9
:0a53c70063800300aa85a001000c1a
:2053d1000000000f004002000000001c000000000000000000000003e000000000c3bbc02e
:0953f10000004003c0100080011f
:2053fa00000000030f168064000004000000a0000000000000000140ea108000102479f487
:0a541a0000000000c3c5a019000047
:205424000000000f0000000000000014000000000000000000001401d000000004c11e84f9
:0954440000000003c0000000009c
:20544d00000000030f16800000000402000000000000000000000001c9100000002c7fee1e
:0a546d0066800000c3c5a000000027
:205477000000000f00000000040000240000000000000000000000000008001010c31fc212
:0954970000004003c00000000108
:2054a000000000030f1780000000040200000000000000000000000000001000002479ace4
:0a54c000e0000000c3c5e00000009a
:2054ca000000000f0040400000000034000a00000000000000000001d000000000a79fd608
:0954ea0028000003c010100000ae
:2054f300000000030f12a66000000400000000000000000000001029c9100000082a1fad5b
:0a55130040002000c3c4a998000066
:20551d000000000f0040400004000014050d00000000000000000003e70d000080c39fd408
:09553d0000000003c01010000082
:20554600000000030f12a600000004000000b0000000000000000280ea001000002471b402
:0a55660060000000c3c4a98000002b
:205570000000000f0000000000000014051000000000000000002683a000000000c11ec2f9
:0955900020000003c0000000002f
:20559900000000030f138000006004000000a0000000000000014299de000000082c77edf7
:0a55b90046460600c3c4e0000018d7
:2055c3000000020f00000000001000240b00000000000000000c03c007000000000000049e
:0955e30000200083c0000000005c
:2055ec00000000030f1380000000040000800000000000000000003c4000000000000003f7
:0a560c00e6000000c3c4e000000047
:205616000000000f0040020001000000000a000000000000000000140900000000000eb637
:095636006c000003c010008000ac
:20563f00400000030f17860400200000005810000000000000000400008000000800556986
:0a565f0042800000c3c5e181000c89
:205669000000000f004002000000001dd00a00000000000000000014008000000008d2f477
:0956890070000003c01000800055
:20569200000000030f16806400000041cc01b00000000000000004000018000000004504c9
:0a56b20002c00000c3c5a0190000eb
:2056bc000000000f000000000000000005000000000000000000002400198000000073008a
:0956dc0040000003c000000000c2
:2056e500000000030f168001000000000081a00000000000000004000001900008204524b5
:0a57050007800000c3c5a0000000eb
:20570f000002000f000000000000003cd5000000000000000000000c000900000010d2c29f
:09572f002c000003c00000000082
:20573800000000030f17800000000043fdd80000000000000000040200001000000205056e
:0a57580040000000c3c5e00000009f
:205762000000000f004040001000000000190000000000000000003c000000000000d2560b
:0957820000000003c0101000003b
:20578b00000020030f12a060000000000001900000000000000004020000000020010de60f
:0a57ab0046800000c3c4a8180000e7
:2057b5000000000f004040000000001599990000000000000000000c000a0000000506c21b
:0957d50078000003c01010000070
:2057de00000000030f12a600000000437999900000000000000004000001b000000005251d
:0a57fe00c2400000c3c4a9800000ef
:205808000000000f0000000000000015b9800000000000000000000c000000000000b3c0a4
:0958280028000003c0000000008c
:20583100000000030f138000006000414a98000000000000000004020000000020010731d0
:0a58510060400600c3c4e000001828
:20585b000000020f000000002000000000000000000000008010003c000000000000fb82b3
:09587b0024000083c000000000bd
:20588400000000030f138000040000000000000000000000000004000058000020010ffdd2
:0a58a400c0400000c3c4e000000093
:2058ae000000000f0040020001000000000000000000000000042803e009000000001b262f
:0958ce0000000003c0100080007e
:2058d700400000030f17860400200000000000000000000000090860db000000000011320f
:0a58f70066800000c3c5e181000ccb
:205901000000000f00400200000000000000000000000000000036e4a00e000000005e020d
:095921006c000003c010008000be
:20592a00000000030f168064000000000000000000000000000003895d00000000010de476
:0a594a0062800000c3c5a019000030
:205954000000000f0000000000000000000000000000000000802902e01000000000ff008a
:0959740000040003c00000000063
:20597d00000000030f168000000000000000000000000000000d08217b00e00000010fa51c
:0a599d0067002000c3c5a000000051
:2059a7000002000f0000000000000000000000000000000000002be4a30000000000777630
:0959c70064000003c000000000b0
:2059d000000000030f178000000000000000000000000000000001d94f800100000107312b
:0a59f00046400000c3c5e0000000bf
:2059fa000000000f00404000000000000000200000000000000000000000000000023a148e
:095a1a0000000003c010100000a0
:205a2300000020030f12a06000000000000004000000000000000000001980000000073249
:0a5a430006800000c3c4a81800008c
:205a4d000000000f0040400000000000001900000000000000240282a0080000000000142d
:095a6d0028000003c01010000025
:205a7600000000030f12a6000000000000019000000000000000001461001000000000032d
:0a5a960066c00000c3c4a980000030
:205aa0000000000f000000000020005699990000000000000000200200800000105f0340db
:095ac00028000003c000000000f2
:205ac900000000030f138000006000004a99900000000000000112017a700001800af78540
:0a5ae90060400000c3c4e000001894
:205af3000000020f00000007002000258980000000000000002803c00f000000000056d409
:095b130000000083c00000000046
:205b1c00000000030f1380000000004279980000000000000000003c4000040000010528c3
:0a5b3c0002800000c3c4e000000076
:205b46000000000f004002000100000000000000000000000000000c0d8000000000000054
:095b660000001003c01000a000b3
:205b6f00400000030f178604002000000000000000000000000004000050000000000001ae
:0a5b8f0042800300c3c5e181000c51
:205b99000000000f004002000000000000000000000000000000003c00000000000000005f
:095bb90028000003c010000000e8
:205bc200000000030f16806400000000000000000000000000000400007000000000000043
:0a5be20000000000c3c5a018000079
:205bec000028000f000000000000000000000000000000000000002c000b1c0000009ac0b5
:095c0c0000000003c010000000bc
:205c1500000000030f1680000000000000000000000000000000040200700000000105e566
:0a5c35004000000043c4c00000005e
:205c3f000002000f000000000000000000000000000000000000000c000b000000c0978046
:095c5f0000000003c00050000029
:205c6800000000030f178000000000000000000000000000000004020000e000082c2774be
:0a5c88000000000043c4c81a000029
:205c92000000000f004043400000000000000000000000070000003c0000000000000014c9
:095cb20028000003c010180000d6
:205cbb00000020030f12a06400000000000000000000000000000402000000000000000378
:0a5cdb0060400000c3c4a9000000ef
:205ce5001000008f004040000000000000000000000000000000000c0000000000a473c09d
:095d050000000003c00000800052
:205d0e00030000030f12a6000000000000000000000000000000040000000000002a0f6407
:0a5d2e000000000043c5e181000001
:205d38000000088f00000340000000000000000000000010000000040000000000c15b80c1
:095d580020000003c00008000057
:205d6100000000030f138004006000000000000000000002800004020001a00000242ff8a5
:0a5d810006c00600c3c4e1000018cc
:205d8b000000088f010000000000000000000000000000008010003c000000000000001480
:095dab0000000003c360000000c9
:205db400000000030fdb800000000000000000000000000000000402000000000000000359
:0a5dd40060000000c3e6a00000001c
:025dde000000c3
:035de00062003f1f
:035de300720080cb
:025de6001100aa
:035de80082000036
:025deb000103b2
:085ded000000000000000000ae
:085df5000000000000000000a6
:085dfd0000000000000000009e
:085e0500000000000000000095
:0261ed000000b0
:0361ef00820080ab
:0261f2000103a7
:0861f4000000000000000000a3
:0861fc0000000000000000009b
:08620400000000000000000092
:08620c0000000000000000008a
:0265f4000000a5
:0265f600110191
:0365f8008200001e
:0265fb0001039a
:0865fd00000000000000000096
:0866050000000000000000008d
:08660d00000000000000000085
:0866150000000000000000007d
:0269fd00000098
:0369ff0082008093
:026a020001038e
:086a040000000000000000008a
:086a0c00000000000000000082
:086a140000000000000000007a
:086a1c00000000000000000072
:026e040000008c
:026e0600110277
:036e080082000005
:026e0b00010381
:086e0d0000000000000000007d
:086e1500000000000000000075
:086e1d0000000000000000006d
:086e2500000000000000000065
:02720d0000007f
:03720f008200807a
:02721200010376
:08721400000000000000000072
:08721c0000000000000000006a
:08722400000000000000000062
:08722c0000000000000000005a
:02761400000074
:0276160011035e
:03761800820000ed
:02761b00010369
:08761d00000000000000000065
:0876250000000000000000005d
:08762d00000000000000000055
:0876350000000000000000004d
:027a1d00000067
:037a1f0082008062
:027a220001035e
:087a240000000000000000005a
:087a2c00000000000000000052
:087a340000000000000000004a
:087a3c00000000000000000042
:027e240000005c
:017e26002239
:027e270004094c
:027e2900010650
:00000001FF
